:020000040800F2
:100000004808002095020008B53F0008453B00085D
:10001000B13F00087516000899460008000000006E
:100020000000000000000000000000006540000823
:100030002D180008000000002540000819410008A4
:10004000AF020008AF020008AF020008AF020008CC
:10005000AF020008AF020008AF020008AF020008BC
:10006000AF020008AF020008AF020008CD17000879
:10007000AF020008AF020008AF020008AF0200089C
:10008000AF020008AF020008AF0200080000000045
:10009000000000000000000000000000AF020008A7
:1000A000AF020008AF020008AF020008AF0200086C
:1000B000AF020008AF020008AF020008AF0200085C
:1000C000AF020008AF020008AF020008AF0200084C
:1000D000AF020008AF020008AF020008AF0200083C
:1000E000AF020008AF020008AF02000800000000E5
:1000F0000000000000000000000000000000000000
:1001000000000000000000000000000000000000EF
:100110000000000000000000AF020008AF0200086D
:1001200000F002F800F0A6F814A696E8000CB2441D
:10013000B344DA4501D100F09DF8BAE80F000FA6EC
:1001400096E83000A5EB040504EB0607AAEB0704CC
:10015000A7F101074FEA15154FEA3414A4F1010481
:10016000AC4201D300F086F813F0010F18BFFB1A60
:1001700043F0010300F001F8DBE71847685B00007B
:10018000885B0000103A24BF78C878C1FAD85207BB
:1001900024BF30C830C144BF04680C607047000001
:1001A000704700000023002400250026103A28BFD5
:1001B00078C1FBD8520728BF30C148BF0B607047D9
:1001C0006E2900F08F81702900F0D382662905F036
:1001D000C484652905F0C184672905F0BE846129BE
:1001E00005F0BD8403681B0A28BF41F0800169291E
:1001F00000F03C81642900F03981752900F03681D6
:100200006F2900F06182782900F09F82E92900F0CF
:10021000FB81E42900F0F881F52900F0F581EF2950
:1002200000F05E82F82900F09E820368DB0928BF97
:1002300041F08001632900F09F87732900F0A487B3
:10024000E32900F0AF87F32900F0B487002070475E
:100250001FB501F005F804000020002105F0E8F8C2
:10026000401C60600020002105F0CCF8E0601FBD5C
:1002700010B510BD00F0C6FF1146FFF7E9FF04F00E
:1002800087FA01F0A3F803B4FFF7F2FF03BC01F013
:10029000EBF800000948804709480047FEE7FEE701
:1002A000FEE7FEE7FEE7FEE7FEE7FEE7FEE7FEE726
:1002B00004480549054A064B70470000A54100085F
:1002C00021010008480200204808002048040020BE
:1002D000480400200FB41CB50C0007AA009007D0FA
:1002E0004142A14202D32044401E01E04FF0FF30C2
:1002F000074B7B4469460190069800F00CF90021F9
:10030000002C01D0009A11701CBC5DF814FB000099
:100310004702000010B5431C02E010F8011B71B148
:100320008107FAD14FF0013202C88C1A8C4314EACB
:10033000C211F9D0C01A0A0603D0C01E10BDC01ADF
:1003400010BD0A0401D0801E10BD0902FCD0401E61
:1003500010BD4FF0000200B5134694469646203972
:1003600022BFA0E80C50A0E80C50B1F12001BFF46E
:10037000F7AF090728BFA0E80C5048BF0CC05DF8D4
:1003800004EB890028BF40F8042B08BF704748BF22
:1003900020F8022B11F0804F18BF00F8012B704796
:1003A00070477047704770B5044685690068C1069C
:1003B00001D5302600E02026C00707D070BDD4E963
:1003C000012130469047206A401C20626D1EF6D500
:1003D00070BD70B5044685690078C00707D170BD4F
:1003E000D4E9012120209047206A401C20626D1E24
:1003F000F6D570BD09684A0501D540B27047C905F8
:10040000FCD500B2704709684A0501D5C0B27047F3
:10041000C905FCD580B2704770B50C460546012A67
:1004200005D02878800600D5EA69002302E0012380
:1004300005E05B1C934202D2E05C0028F9D1A86978
:10044000E618C01AA861286A184428622846FFF7EF
:10045000AAFF04E0D5E9012114F8010B9047B4424A
:10046000F8D32846FFF7B5FF70BD00002DE9F04135
:100470000646002410687529314616A510D0FFF7EE
:10048000B9FF002802DA404213A507E031688A0765
:1004900001D512A502E0490704D511A5012401E008
:1004A000FFF7B1FF00210A2206F1240709E0B0FBA3
:1004B000F2FCB0FBF2F302FB1C003030785418461B
:1004C000491C0028F3D123462A463046BDE8F041B6
:1004D00000F063BA000000002D0000002B000000B7
:1004E0002000000011680268006A530501D50870F9
:1004F0000AE0D30501D5088006E0130603D5C2172C
:10050000C1E9000200E008600120704701694A1C4F
:1005100002610878704700B58FB0CDE90131002144
:10052000059105497944CDE903101146684600F06C
:100530002BF90FB000BD0000E5FFFFFFD1E900235C
:100540009A4202D2531C0B60107070472DE9FF5F76
:1005500015468A460446DFF8AC80F8440027D8E9FF
:1005600000103E46CDE9001010E03AF816106A4639
:1005700002A800F023FE411C07D02178890603D58C
:10058000E269391891420DD80744761C207880061C
:1005900002D5E069B84205DDAE42E6DB3AF8160066
:1005A0000028E2D1A069C01BA0612046FFF7FBFE36
:1005B000D8E90010CDE90010002017E03AF8181033
:1005C0006A4602A800F0FAFDB0F1FF3F81460BD069
:1005D00000250DF1080B05E0D4E901211BF8050009
:1005E00090476D1C4D45F7D308F10100B04280469D
:1005F000E4DB206A384420622046FFF7EAFEBDE8CB
:10060000FF9F0000065600002DE9F0418046D21DF4
:1006100022F007020025D2E90002F52915A614D020
:10062000011E72F1000106DA0023D0EB030063EB38
:10063000020211A608E0D8F800108B0701D50FA61A
:1006400002E0490701D50EA601251146002408F154
:10065000240704E000F05CF930323A55641C50EA9B
:100660000102F7D12B46324621464046BDE8F04113
:1006700000F093B9000000002D0000002B000000E6
:100680002000000030B4002100F1240408E002F052
:100690000705D208303542EA4372DB086554491C2D
:1006A00052EA0305F3D10468002310A2250708D5F8
:1006B00004F020040C4304D0C46901230CA2641E7E
:1006C000C46130BC00F069B910B504462146106819
:1006D000FFF799FE02462046BDE810400023D1E70F
:1006E000D21D22F00701D1E90023CBE70000000072
:1006F00030000000F0B40D460188090502D5214CF8
:100700007C4402E01F4C7C440E34002100F124069E
:1007100008E002F00F071209E75D42EA03721B09C5
:100720007754491C52EA0307F3D1027800231207D9
:1007300004D5702D06D009B1022311342246F0BC35
:1007400000F02BB901231034F8E770B504460D46CC
:1007500021461068FFF757FE024629462046BDE8AD
:1007600070400023C6E7D21D22F00703D3E900231F
:10077000C0E70368126843F0200303600823C361E5
:100780000023B7E7685400002DE9F05F894604466E
:100790004FF0000ADFF874B1FB44C0F820A02046F7
:1007A000E1688847002874D0252806D0D4E90121C3
:1007B0009047206A401C2062F1E700265F462046F1
:1007C000E16888472028054607DB312D05D27819D6
:1007D00010F8200C08B10643F1E7B00701D526F068
:1007E0000406C4F81CA00027C4F818A02A2D09D0BC
:1007F000284604F0FFFD38B304EB8708303DC8F805
:10080000185019E059F8041B204604EB8702916147
:10081000E1688847012F054618D1E069002820DAF1
:1008200026F020061DE0D8F8180000EB800005EB4C
:1008300040003038C8F818002046E168884705466F
:1008400004F0D8FD0028EED1012F0AD02E2D08D1BA
:100850002046E16888477F1C0546022F46F02006A7
:10086000C4DBA069002803DA404246F00106A0611B
:10087000F00701D026F010066C2D0BD0682D09D0A2
:100880004C2D39D06A2D35D0742D35D07A2D33D0FA
:1008900016E038E0E1682F4620468847B842054612
:1008A00009D16C2F26D04FF48060E16806432046C2
:1008B0008847054604E06C2F1AD04FF48070064339
:1008C0000DB3A5F14100192802D8203546F4006681
:1008D0004A462946204626604E46FFF771FC80B105
:1008E00001280BD0F61D26F0070000F1080956E795
:1008F0004020E4E78020D8E70020D6E706F104098D
:100900004DE7284652E7206ABDE8F09FF853000003
:1009100030B5B0F10A0271F100034FEA900E4EEAD1
:10092000817EB0EB0E0061EB91014FEA101E4EEAA2
:10093000017E10EB0E0041EB11114FEA102E4EEA32
:10094000016E10EB0E0041EB11214FEA104E4EEA02
:10095000014E10EB0E0041EB1141401841F1000136
:100960004FEAD00040EA41704FEAD1014FEA8104DA
:1009700044EA907410EB800544EB01046D1944EBDC
:100980000404521BA3414FF0000348BF0A3200D5B4
:1009900030BD401C41F1000130BD2DE9F0470D464E
:1009A00099469246044600F124080168880604D559
:1009B000E06921F01001216000E00120A84201DD82
:1009C000471B00E00027A1697A1902EB0900081A09
:1009D000A0612078C00602D42046FFF7E4FC002680
:1009E00008E0D4E901211AF806009047206A401C6B
:1009F000761C20624E45F4DB2078C0060AD52046DE
:100A0000FFF7D1FC06E0D4E9012130209047206AAD
:100A1000401C2062381EA7F10107F4DC07E0D4E98E
:100A2000012118F805009047206A401C2062281E0A
:100A3000A5F10105F3DC2046FFF7CBFC207800068A
:100A400002D50220BDE8F0870120FBE72DE9FF4F2A
:100A50000C461E464FF0FF378BB0D2E90001DDF89F
:100A600060800A908A46C1F30A5505B93D460021C7
:100A700008464FF00000BAF1000F00F4400005DA1C
:100A800000EB80004FF4400101EA50004FEA90591A
:100A9000B9F1010F00DDB9460A9850EA4A000ED0BC
:100AA00044F61050A5F2FF3545432F14B8F1000F5E
:100AB0001ED07542291E1EDDC9F100021CE0B8F1EE
:100AC000010F4FF0000001D0302103E0F24305E0B8
:100AD0002154401CB042FBDB30460022002121544F
:100AE0000B99C1F80880C1E900200FB0BDE8F08F74
:100AF000BD1B6D1CDEE74A4600DA694206A800F01D
:100B0000F3FB06AB93E8070003AB83E8070050460E
:100B10000A9904F093F88DE80700A0F500501F38FB
:100B200000900398002D0ADD42F21F014A46084456
:100B3000002303A90390684604F0FCFA09E0A0F53D
:100B400000504A461F38002303A90390684604F06A
:100B500006FB8DE807000004000C03D04FF0FF30C7
:100B6000410800E01046B8F1000F03D000220092C7
:100B700015461EE0751E05D4FFF7CAFE30326255D9
:100B80006D1EF9D5B3460122084302D000227F1C16
:100B900004E02078302801D100227F1E002A099726
:100BA00084D01DE0112D07DAFFF7B2FE3032625516
:100BB0006D1C50EA0102F5D1084302D00098C8B17B
:100BC0000EE00021681E05E0235C625C6354225441
:100BD000401E491C8142F7DBAB46A81B401E099012
:100BE000002004F80B000B98099AC0F80880C0E9AF
:100BF000002B7AE711264FF0000857E72DE9F04F58
:100C000088460446D21D22F0070191B0D1E90001C7
:100C1000CDE90A0104F0DAFB02460B98C00F01D0BF
:100C20002D2007E02068810701D52B2002E020213C
:100C300001EAC000032A099001D0072A05DB034618
:100C40004146204600F010FB0BE12078800601D5DC
:100C5000E06900E00620B8F1650F814606D0B8F1E2
:100C6000660F18D0B8F1670F70D131E00020B9F1EC
:100C7000110F009001DB112301E009F101030AAA21
:100C800001A90CA8FFF7E2FEDDE90C70002609F1CE
:100C90000105834647E001204B4600904FF0004796
:100CA0000AAA01A90CA8FFF7D1FEDDE90DB00C9945
:100CB0005D46002610B909F101000D18B9EB0500D9
:100CC00003D4C0F1FF3609F10105A5EB09002BE0C3
:100CD000B9F1010F01DA4FF001090020B9F1110F4C
:100CE0000090484601DD112300E003460AAA01A94D
:100CF0000CA8FFF7ABFEDDE90C704D4600268346DD
:100D0000207800070AD4AB4500DA5D4601A8012D22
:100D100004DD411911F8011C302907D04F4502DAD2
:100D200017F1040F04DA012082460FE06D1EEEE792
:100D3000002F02DCED1B3E4403E0781CA84200DDDE
:100D40007D1CB81B00F1010A4FF000472078000716
:100D500003D4AA4501DB4FF0FF3A0021B7F1004F61
:100D60000DF143088DF8431024D002202B23002FCF
:100D700001DA7F422D230A21021EA0F1010000DCCE
:100D80005FB197FBF1FC97FBF1F201FB1C7C17466E
:100D90000CF1300C08F801CDEEE7A8F1010003706A
:100DA0002188090501D5452100E06521A0F1010850
:100DB00000F8011C09980FA9A1EB0807FF1D00B15D
:100DC0000120411901EBEA70A1693844081A401E5C
:100DD000A0612078C00602D42046FFF7E4FA099803
:100DE00028B1D4E901219047206A401C2062207874
:100DF000C00622D52046FFF7D6FA1EE0002E04DBFF
:100E0000B34502DD01A8805D00E03020D4E9012176
:100E10009047206A401C2062761CAAF101005FEA1C
:100E2000000A0AD100F01CFAC0680168405CD4E9ED
:100E300001219047206A401C2062281EA5F101056F
:100E4000DCDC07E0D4E9012118F8010B9047206AA7
:100E5000401C2062381EA7F10107F3DC2046FFF793
:100E6000B8FA032011B041E62DE9F04F04460D46D3
:100E7000D21D22F0070089B0D0E9009748463946D4
:100E800004F0A4FA0246F80F01D02D2307E02068F1
:100E9000810701D52B2302E0202101EAC0038DF850
:100EA00020300BB1012000E00020032A824601D04F
:100EB000072A04DB2946204600F0D6F93FE12078D6
:100EC000800601D40D2500E0E569C7F30A560D2D13
:100ED00049DA00214FEA175B08464FF00000002F67
:100EE00000F4400007DA00EB80004FF4400100EB13
:100EF000D07001EA60008115012901DD4FF0FF315A
:100F000000224FEA850CBCF1180F06D31346ACF152
:100F100018004FF08052C24003E04FF4801323FAD0
:100F20000CF30CF10C0CBCF1200F04D3ACF1200C31
:100F300009FA0CF001E007FA0CF000294FF0004824
:100F400001DD18B90FE00ED140450CD319EB0209B1
:100F50005F4121B9404502D19F4329EA0209BBEB19
:100F6000175F00D0761C2088000502D57B487844A6
:100F700002E07A487844193808AA302302F80A3087
:100F8000037C0AF10101002E0AF1020A53546A4659
:100F900002DC4FF0300101E04FF031014FF0010869
:100FA0008DF8001002D0A6F2FF3603E059EA47019F
:100FB00000D06B4E002D02DC2178090704D54FF0DC
:100FC00002082E218DF80110C44600210BE0C7F362
:100FD00003433F01C35C491C6D1E02F8083005291C
:100FE00008F1010801DA002DF1DC00210CE000EB32
:100FF0001973491C1B786D1E082902F808304FEA46
:10100000091908F1010801DA002DF0DC21688B06CE
:1010100002D516E0A8F10108E04505DD02EB080362
:1010200013F8013C302BF5D0B8F1000F09DD02EBCD
:10103000080313F8013C2E2B03D1090701D4A8F1B2
:101040000108002D05DD3E2102F808106D1E08F193
:101050000108407C002E02F8080008F1010804DABB
:101060002D20764202F8080002E02B2002F808004A
:101070000A214FF47A70864208F101080BDB96FBD7
:10108000F0F3303302F8083096FBF0F308F1010872
:1010900000FB136601E0642E0CDB642096FBF0F38A
:1010A000303302F8083096FBF0F308F1010800FB3A
:1010B000136601E00A2E06DB96FBF1F0303002F8F1
:1010C000080008F1010896FBF1F001FB10603030D8
:1010D00002F80800A16908F1010808EB050202EB1B
:1010E0000A00081AA0612078C00602D42046FFF743
:1010F0005AF9216A08AE01EB0A00206204E0D4E943
:10110000012116F8010B9047BAF1010AF7D22078B5
:10111000C00602D52046FFF746F96E4609E016F8EC
:10112000010B3E280FD0D4E901219047206A401CD2
:101130002062B8F10108F2D22046FFF74AF909B05F
:101140000320BDE8F08F206A2844206203E0D4E940
:101150000121302090476D1EEBD3F8E7464C00008C
:1011600002FCFFFF10B5436913B1AFF3008001E04B
:10117000FFF752F9012010BD127800F124010A7026
:1011800000224A700122EDE711684FF0FF32E9E7D3
:1011900010B5436913B1AFF3008001E0FFF7D6F952
:1011A000012010BD128800F1240182840022C28433
:1011B0000122EDE711684FF0FF32E9E72DE9F04138
:1011C00016460C46054600F043F8036893F8010103
:1011D000012807D0FF2C12D8185D80B101202C7097
:1011E000BDE8F081D3F807013246214603F2071328
:1011F000C7182846BC46BDE8F041002360474FF0C1
:10120000FF30EDE7754600F0EBF8AE4605006946A5
:10121000534620F00700854618B020B5FFF748F880
:10122000BDE820404FF000064FF000074FF00008E7
:101230004FF0000BAC46ACE8C009ACE8C009ACE824
:10124000C009ACE8C00921F007018D4670470000D5
:1012500010B500F005F8001D10BD00BFD54100001D
:1012600000487047300000202DE9F0411F46044639
:1012700003260168072A01F4006004DB08B116A503
:1012800005E016A503E008B115A500E015A521F0BD
:1012900010002060A069C01EA0610FB1401EA061B7
:1012A0002046FFF780F84FB1D4E901213846904736
:1012B000206A401C2062C01C206206E0206AFAE717
:1012C000D4E9012115F8010B9047761EF8D220468B
:1012D000FFF77FF8BDE8F0814E414E006E616E0071
:1012E000494E4600696E66002DE9F0478146164674
:1012F0008AB0354878440DC88DE80D0032487844EE
:10130000801C03AC0DC884E80D0041F69B300844F6
:10131000372190FBF1F290FBF1F5A5F1800501FB7F
:1013200012041B3C02D56442012000E00020DFF8DB
:1013300098A080460027FA44AAF1BE0A0EE0E00712
:101340000AD03246684607EB470101230AEB8101C8
:1013500003F005FF8DE8070064107F1C002CEED120
:10136000194F7F44AE3F19E0E80715D007EB041092
:101370000DF1180A90E80E008AE80E00C068F042ED
:1013800001D1981908903246012306A903A803F059
:10139000E6FE03AB83E807006D10641C002DE3D16B
:1013A0004FF0010332466946B8F1000F03A802D09E
:1013B00003F0C0FE01E003F0D2FEC9E90001C9F864
:1013C00008200AB0BDE8F0875049000010B5044677
:1013D000AFF300802046BDE81040FEF754BF000088
:1013E00000487047100000204FF0013C50F8042BDB
:1013F00051F8043B9A4221D1A2EB0C03934313EA28
:10140000CC1317D150F8042B51F8043B9A4215D154
:10141000A2EB0C03934313EACC130BD150F8042B2B
:1014200051F8043B9A4209D1A2EB0C03934313EA0F
:10143000CC13DBD04FF00000704700BFD01A01BAC8
:10144000B1FA81F101F0180122FA01F0CB40DBB2D0
:10145000C0B2C01AC1F120012CFA01F3D11A914394
:1014600011EAC311E6D1704701491820ABBEFEE76F
:10147000260002007047000080B584B00290002072
:101480000190029800688068C00770B3FFE7029877
:101490000168886820F00100886001F079F9019006
:1014A000FFE7029800688068C007E8B1FFE701F035
:1014B0006FF90199401A032815D3FFE702980068D5
:1014C0008068C00770B1FFE70299886A40F0100099
:1014D00088620299C86A40F00100C86201208DF854
:1014E0000F0006E0FFE7DCE7FFE700208DF80F00C4
:1014F000FFE79DF80F0004B080BD000080B582B00A
:1015000001900198406A00900098806A10F0500F96
:1015100028D1FFE70099886A40F40070886200983B
:101520000068806800F46020B0F5602F16D1FFE7F6
:101530000098007B90B9FFE70099886A20F48070DA
:1015400088620098806AC004002806D4FFE70099EA
:10155000886A40F001008862FFE7FFE7009800F02A
:101560000FFB05E00098006A016B01988847FFE7D0
:1015700002B080BD80B582B001900198406A0090B1
:101580000099886A40F0400088620099C86A40F07B
:101590000400C862009800F0FBFA02B080BD0000B1
:1015A00080B582B001900198406A0090009800F0E8
:1015B000EBFA02B080BD000080B584B0029000203C
:1015C00001900090029800688068C007002849D107
:1015D000FFE702980168886840F00100886040F2E7
:1015E0000000C2F2000000684DF68361C4F21B31B6
:1015F000A0FB0110800C0090FFE7009820B1FFE7EE
:10160000009801380090F8E701F0C2F80190FFE778
:10161000029800688068C00718BBFFE701F0B8F8BF
:101620000199401A03281BD3FFE7029800688068DD
:10163000C007A0B9FFE70299886A40F010008862ED
:101640000299C86A40F00100C862FFE702990020D1
:1016500081F82400FFE701208DF80F0006E0FFE786
:10166000D6E7FFE700208DF80F00FFE79DF80F0099
:1016700004B080BDFFE7FEE780B582B000208DF8A2
:101680000700282003F06AF840F60000C4F20100C9
:10169000202101F04DF8A8B9FFE7502003F05EF8D3
:1016A00040F60000C4F20100202101F041F820B111
:1016B000FFE701208DF8070003E0FF208DF8070009
:1016C000FFE7FFE7FFE740F60000C4F2010020213A
:1016D00001F02EF808B1FFE7F5E79DF8070002B02A
:1016E00080BD000080B582B000208DF80600FFE7C5
:1016F0009DF80600072843DCFFE7FFE740F60000FF
:10170000C4F20100202101F013F808B9FFE7F5E762
:10171000282003F023F840F60000C4F20100202145
:1017200001F006F868B9FFE79DF80600C0F107016F
:10173000012000FA01F19DF8070088438DF80700A9
:1017400017E09DF80600C0F10701012000FA01F141
:101750009DF8070008438DF80700FFE740F60000FA
:10176000C4F20100202100F0E3FF08B1FFE7F5E734
:10177000FFE7FFE79DF8060001308DF80600B7E7A8
:101780009DF8070002B080BD80B582B040F6000031
:10179000C4F2010000902021019102F07BFC00982E
:1017A0000199002200F0DCFF4FF4966002F0D6FFB2
:1017B00000980199012200F0D3FF142002F0CEFF1F
:1017C0000098019902F050FC02B080BD80B540F253
:1017D000C800C2F2000000F0F7FB80BD84B00390A7
:1017E0000291019200930398C16B026C012090401A
:1017F0004860009803990968486003984068102879
:1018000009D1FFE701980399096888600298039954
:101810000968C86008E0029803990968886001981F
:1018200003990968C860FFE704B07047704700007B
:1018300081B0EFF3108072B60090FFE7FEE7000082
:1018400080B586B0049000208DF80F000190FFE76E
:10185000049890F82400012804D1FFE702208DF8B5
:101860001700AEE00499012081F82400FFE7FFE7AC
:101870000498FFF701FE8DF80F000498FFF79CFE17
:101880008DF80F009DF80F00002840F08F80FFE7D3
:101890000498806A40F0020020F48850049988621D
:1018A00040F20000C2F2000000680090022001F047
:1018B00027F801460098B0FBF1F040000190FFE7E7
:1018C000019820B1FFE7019801380190F8E70498EA
:1018D0000168886840F00800886000F059FF0290B5
:1018E000FFE70498006880680007002822D5FFE71A
:1018F00000F04EFF0299401A0B281AD3FFE7049814
:10190000006880680007002812D5FFE70498806A05
:1019100040F0100020F0020004998862FFE704996B
:10192000002081F82400FFE701208DF8170048E02F
:10193000FFE7D6E704980168886840F004008860F3
:1019400000F026FF0290FFE70498006880684007D7
:10195000002822D5FFE700F01BFF0299401A0B2850
:101960001AD3FFE70498006880684007002812D562
:10197000FFE70498806A40F0100020F0020004990C
:101980008862FFE70499002081F82400FFE7012026
:101990008DF8170015E0FFE7D6E70498806A40F05D
:1019A000010020F0020004998862FFE7FFE7049934
:1019B000002081F82400FFE79DF80F008DF8170044
:1019C000FFE79DF8170006B080BD000085B00390CA
:1019D000029100208DF807000090FFE7039890F82F
:1019E0002400012804D1FFE702208DF81300C3E092
:1019F0000399012081F82400FFE7FFE7029840687F
:101A0000062812D8FFE703980068406B029A116815
:101A1000526802EB8202053A1F239340984391409B
:101A2000084303990968486329E0029840680C2834
:101A300012D8FFE703980068006B029A1168526899
:101A400002EB8202233A1F239340984391400843BC
:101A500003990968086311E003980068C06A029A54
:101A60001168526802EB8202413A1F239340984367
:101A70009140084303990968C862FFE7FFE70298AD
:101A800000680A2812D3FFE703980068C06802992B
:101A90000A68896802EB42021E3A07239340984382
:101AA0009140084303990968C86010E003980068F2
:101AB000006902990A68896802EB42020723934091
:101AC000984391400843039909680861FFE7029829
:101AD0000068102805D0FFE702980068112840D15F
:101AE000FFE70398006842F20041C4F20101884216
:101AF0002DD1FFE70398006880680002002825D4F4
:101B0000FFE703980168886840F400008860029845
:101B10000068102819D1FFE740F20000C2F200006F
:101B200000684DF68361C4F21B31A0FB0110800CEC
:101B300000EB800040000090FFE7009820B1FFE735
:101B4000009801380090F8E7FFE7FFE708E0039905
:101B5000886A40F02000886201208DF80700FFE7C6
:101B6000FFE7FFE70399002081F82400FFE79DF8D5
:101B700007008DF81300FFE79DF8130005B07047CC
:101B800081B0009001B0704781B0009001B0704703
:101B900081B0009001B0704780B588B006900020F9
:101BA0008DF81700049003900290069820B9FFE783
:101BB00001208DF81F00F4E00698806830B1FFE73F
:101BC0000698007D08B1FFE7FFE7FFE70698806A07
:101BD00050B9FFE706990020C862069981F82400F1
:101BE000069800F0E3F8FFE70698FFF745FC8DF84C
:101BF00017000698806AC006002800F1C480FFE73D
:101C00009DF81700002840F0BE80FFE70698806A24
:101C100040F0020020F488500699886206994868CE
:101C2000CA691043097B40EA4101039808430390C5
:101C3000069881680120B1F5807F019008D0FFE708
:101C4000069880680138B0FA80F040090190FFE7FB
:101C500001990498CA0740F48071002A18BF084609
:101C600004900698007D01281ED1FFE70698007BAE
:101C700070B9FFE7069881694EF20000CFF6FF7059
:101C800000EB41300499084340F4006004900AE0FE
:101C90000699886A40F0200088620699C86A40F078
:101CA0000100C862FFE7FFE706980068406820F47B
:101CB00069400499084306990968486006980068D5
:101CC00080684FF2FD71CFF6E17108400399084337
:101CD000069909688860069881680120B1F5807FBF
:101CE000009008D0FFE7069880680138B0FA80F0CD
:101CF00040090090FFE7009800F00100002818BF9D
:101D00004FF48070B0F5807F09D1FFE70698016934
:101D10000020CFF6F07000EB01500290FFE706982C
:101D20000068C06A20F470000299084306990968A7
:101D3000C86206980068806840F6FE61CFF61F71A1
:101D40000840039988420CD1FFE706990020C86239
:101D50000698806A40F0010020F00200069988622F
:101D600010E00698806A40F0100020F0020006990A
:101D700088620699C86A40F00100C86201208DF8A7
:101D80001700FFE708E00699886A40F010008862B3
:101D900001208DF81700FFE79DF817008DF81F0050
:101DA000FFE79DF81F0008B080BD000080B588B037
:101DB0000790002006900590049003900798006813
:101DC00042F20041C4F20101884252D1FFE7FFE72D
:101DD00041F21800C4F20200016841F40071016090
:101DE000006800F4007002900298FFE7FFE741F2FC
:101DF0001800C4F20200016841F0040101600068AB
:101E000000F0040001900198FFE71E2003900320DA
:101E1000049040F60000C4F2010003A900F0F8FAB3
:101E200040F2C800C2F2000000900821C4F2020192
:101E300001600021416081608022C2604FF48072A5
:101E400002614FF40062426120228261C16100F0B0
:101E5000FFF918B1FFE7FFF7EBFCFFE7FFE7079893
:101E600040F2C801C2F20001016207984862FFE730
:101E7000FFE708B080BD000080B586B004900391F4
:101E8000029200208DF80700FFE7049890F82400E4
:101E9000012804D1FFE702208DF817008FE0049994
:101EA000012081F82400FFE7FFE70498FFF784FB97
:101EB0008DF807009DF80700002874D1FFE704980B
:101EC000806A40F4807040F601618843049988621A
:101ED0000499886A20F48010886204980068406839
:101EE0004005002809D5FFE70498806A40F4805037
:101EF00020F4005004998862FFE70498806AC004C7
:101F0000002806D5FFE70499C86A20F00600C862D9
:101F100003E004990020C862FFE7FFE7049900206E
:101F200081F82400FFE70498016A41F2FD40C0F601
:101F3000000088620498016A41F2A150C0F60000D6
:101F4000C8620498016A41F27550C0F60000086347
:101F5000049801686FF002000860049801688868BE
:101F600040F48070886004980168006A4C31039ADC
:101F7000029B00F0C5F904980068806800F46020B6
:101F8000B0F5602F07D1FFE704980168886840F436
:101F9000A000886006E004980168886840F480101A
:101FA0008860FFE706E0FFE70499002081F824003D
:101FB000FFE7FFE79DF807008DF81700FFE79DF8A2
:101FC000170006B080BD000080B58EB00D900D9852
:101FD000C06B00680C900D98006800680B900C981E
:101FE0000D99096CC8404007002875D5FFE79DF89A
:101FF0002C00400700286FD5FFE70D9800680068A7
:102000008006002807D4FFE70D980168086820F0D3
:1020100004000860FFE70D9800680821C4F202017F
:10202000884203D1FFE704200A9047E00D9800683A
:102030001C21C4F20201884203D1FFE7402009902D
:1020400039E00D9800683021C4F20201884204D1C1
:10205000FFE74FF4806008902AE00D980068442163
:10206000C4F20201884204D1FFE74FF48040079098
:102070001BE00D9800685821C4F20201884204D187
:10208000FFE74FF4802006900CE00D9801686C2269
:10209000C4F202024FF08060914208BF4FF480000A
:1020A0000690FFE706980790FFE707980890FFE77C
:1020B00008980990FFE709980A90FFE70A98042119
:1020C000C4F2020108600D98C06A20B1FFE70D98C4
:1020D000C16A8847FFE7B8E00C980D99096CC840C1
:1020E0008007002840F18080FFE79DF82C008007E2
:1020F000002879D5FFE70D98006800688006002861
:102100000BD4FFE70D980168086820F00A0008600A
:102110000D99012081F82100FFE70D980068082142
:10212000C4F20201884203D1FFE70220059047E094
:102130000D9800681C21C4F20201884203D1FFE718
:102140002020049039E00D9800683021C4F202018B
:10215000884204D1FFE74FF4007003902AE00D9805
:1021600000684421C4F20201884204D1FFE74FF421
:10217000005002901BE00D9800685821C4F2020143
:10218000884204D1FFE74FF4003001900CE00D9835
:1021900001686C22C4F202024FF00070914208BF45
:1021A0004FF400100190FFE701980290FFE70298BA
:1021B0000390FFE703980490FFE704980590FFE77A
:1021C00005980421C4F202010860FFE70D99002080
:1021D00081F82000FFE70D98806A20B1FFE70D9895
:1021E000816A8847FFE72FE00C980D99096CC84079
:1021F0000007002827D5FFE79DF82C0000070028DE
:1022000021D5FFE70D980168086820F00E000860EE
:102210000D98C26B016C012000FA01F151600D991B
:1022200088630D9981F82100FFE70D99002081F85E
:102230002000FFE70D98006B20B1FFE70D98016BC0
:102240008847FFE7FFE7FFE7FFE70EB080BD00002C
:1022500083B0019000200090019820B9FFE7012091
:102260008DF80B0047E0019908684FF6F872CBF63D
:10227000FD7210444CF6CD42CCF6CC42A0FB0202DB
:102280006FF0030000EA9200086401990020C4F294
:102290000200C8630199022081F8210001980068BA
:1022A00000680090009843F6F0718843009001990F
:1022B0004868D1F808C0CB680A6940EA0C001843A6
:1022C00010434A6910438A691043C9690143009861
:1022D000084300900098019909680860019900205E
:1022E0008863019A012182F82110019981F8200068
:1022F0008DF80B00FFE79DF80B0003B0704700005E
:1023000080B586B0049003910292019300208DF86D
:102310000300FFE7049890F82000012804D1FFE7AC
:1023200002208DF817004CE00499012081F820006C
:10233000FFE7FFE7049890F82100012832D1FFE77A
:102340000499022081F821000499002088630498F0
:102350000168086820F00100086004980399029A57
:10236000019BFFF73BFA0498C06A38B1FFE7049875
:102370000168086840F00E0008600CE004980168ED
:10238000086820F00400086004980168086840F0BC
:102390000A000860FFE704980168086840F001003F
:1023A000086009E0FFE70499002081F82000FFE7BA
:1023B00002208DF80300FFE79DF803008DF8170059
:1023C000FFE79DF8170006B080BD000080B584B01F
:1023D000039000F0DDF9029003980190019801301C
:1023E00048B1FFE740F20400C2F200000178019812
:1023F00008440190FFE7FFE700F0CAF90299401A8C
:102400000199884201D2FFE7F6E704B080BD0000E1
:1024100090B00F900E9100200D900990FFE70E985C
:1024200000680D99C840002800F07F81FFE70D99F2
:10243000012088400C900E9800680C9908400B9081
:102440000B980C99884240F06C81FFE70E98406829
:102450000590002851D0FFE7059801283AD0FFE702
:10246000059802283FD0FFE7059803285FD0FFE7D3
:102470000598112832D0FFE70598122838D0FFE7D9
:1024800005980021C1F21101884236D0FFE7059876
:102490000021C1F2120188422FD0FFE705980021E8
:1024A000C1F22101884228D0FFE705980021C1F23E
:1024B0002201884221D0FFE705980021C1F23101B5
:1024C00088421AD0FFE705980021C1F23201884204
:1024D00013D02FE00E98C06809902CE00E98C068C9
:1024E0000430099027E00E98C0680830099022E077
:1024F0000E98C0680C3009901DE00E98806818B9DD
:10250000FFE70420099011E00E988068012806D1A9
:10251000FFE7082009900C980F99086105E0082052
:1025200009900C980F994861FFE7FFE703E000204E
:10253000099000E0FFE70B98FF2803D8FFE70F980A
:10254000049003E00F9804300490FFE7049808908B
:102550000B98FF2804D8FFE70D988000039006E051
:102560000D996FF01F0000EB81000390FFE70398C7
:10257000079008980068079A0F21914088430999AD
:1025800091400843089908600E98C079C006002859
:1025900040F1C680FFE7FFE741F21800C4F20200F5
:1025A000016841F001010160006800F0010006903F
:1025B0000698FFE70D9820F003000821C4F20101FE
:1025C00040580A900D9800F0030081000F2000FA97
:1025D00001F10A9888430A900F9840F60001C4F26E
:1025E0000101884203D1FFE70020029026E00F9806
:1025F00040F60041C4F20101884203D1FFE7012007
:10260000019018E00F9841F20001C4F201018842E4
:1026100003D1FFE7022000900AE00F9941F2004247
:10262000C4F201020420914208BF03200090FFE79A
:1026300000980190FFE701980290FFE702980D993A
:1026400001F00301890000FA01F10A9808430A9099
:102650000A980D9921F003010822C4F20102885062
:102660000E988079C006002809D5FFE70B9A40F242
:102670000841C4F2010108681043086008E00B9AA1
:1026800040F20841C4F20101086890430860FFE786
:102690000E9880798006002809D5FFE70B9A40F252
:1026A0000C41C4F2010108681043086008E00B9A6D
:1026B00040F20C41C4F20101086890430860FFE752
:1026C0000E9880798007002809D5FFE70B9A40F221
:1026D0000441C4F2010108681043086008E00B9A45
:1026E00040F20441C4F20101086890430860FFE72A
:1026F0000E988079C00748B1FFE70B9A40F200417D
:10270000C4F2010108681043086008E00B9A40F227
:102710000041C4F20101086890430860FFE7FFE749
:10272000FFE70D9801300D9079E610B0704700007A
:1027300082B00190ADF8021001988068BDF80210D7
:10274000084204D0FFE701208DF8010003E00020DB
:102750008DF80100FFE79DF8010002B0704700000E
:1027600082B00190ADF802108DF801209DF80100B3
:1027700028B1FFE7BDF802000199086105E0BDF846
:102780000200000401990861FFE702B070470000F1
:1027900040F24020C2F200000068704740F204009E
:1027A000C2F20000027840F24021C2F20001086843
:1027B000104408607047000080B582B0032000F02C
:1027C00097F80020019000F005F800F03BF8019820
:1027D00002B080BD80B582B0009040F20000C2F22D
:1027E0000000006840F20401C2F200010A784FF4D0
:1027F0007A71B1FBF2F1B0FBF1F000F069FE20B1AB
:10280000FFE701208DF8070018E000980F280DD889
:10281000FFE700994FF0FF30002200F04FF80098DA
:1028200040F20801C2F20001086003E001208DF8C7
:10283000070003E000208DF80700FFE79DF8070080
:1028400002B080BD83B0FFE741F21800C4F202007D
:10285000016841F001010160006800F00100029090
:102860000298FFE7FFE741F21C00C4F20200016892
:1028700041F080510160006800F0805001900198A3
:10288000FFE7FFE70421C4F2010108680090009807
:1028900020F0E0600090009840F0007000900098F8
:1028A0000860FFE703B0704780B582B08DF807007D
:1028B0009DF9070001F0F2FE02B080BD80B586B040
:1028C0008DF81700049103920020029001F0FEFEA3
:1028D00002909DF91700019002980499039A01F063
:1028E0006BFB0146019801F0F9FE06B080BD0000C7
:1028F00080B582B00190019801F012FF02B080BD56
:1029000080B584B00390002002900190039800905D
:10291000012804D0FFE70098022843D052E041F29A
:102920002000C4F2020000680290029800F4407097
:10293000B0F5807F0AD1FFE79DF8080080070028E6
:1029400004D5FFE74FF4004001902AE0029800F41C
:102950004070B0F5007F0DD1FFE741F22400C4F2D2
:10296000020000688007002804D5FFE749F64040D0
:10297000019015E0029800F44070B0F5407F0DD151
:10298000FFE741F20000C4F2020000688003002863
:1029900004D5FFE74FF22440019000E0FFE7FFE796
:1029A000FFE710E000F0E6F941F20401C4F2020191
:1029B000096801F44042022101EB5231B0FBF1F011
:1029C000019000E0FFE7019804B080BD80B586B0BB
:1029D000049000200390029004980078C00700281B
:1029E00000F0AC80FFE700208DF8070041F21C00EA
:1029F000C4F202000068C000002813D4FFE7FFE71C
:102A000041F21C00C4F20200016841F080510160F3
:102A1000006800F0805000900098FFE701208DF8DA
:102A20000700FFE747F20000C4F200000068C0059D
:102A3000002822D4FFE747F20001C4F20001086831
:102A400040F480700860FFF7A3FE0390FFE747F2B1
:102A50000000C4F200000068C00500280CD4FFE7A5
:102A6000FFF796FE0399401A652804D3FFE7032079
:102A70008DF8170078E0EAE7FFE741F22000C4F2A2
:102A80000200006800F4407002900298E0B3FFE793
:102A900002980499496801F44071884234D0FFE7F4
:102AA00041F22001C4F20201086820F44070029053
:102AB00040F24042C4F24222012010600020106027
:102AC000029808609DF80800C007E0B1FFE7FFF733
:102AD0005FFE0390FFE741F22000C4F202000068AD
:102AE000800700280ED4FFE7FFF752FE0399401A33
:102AF00041F28931884204D3FFE703208DF81700A3
:102B000032E0E8E7FFE7FFE741F22001C4F202010B
:102B1000086820F44070049A5268104308609DF8D9
:102B20000700012809D1FFE741F21C01C4F20201AC
:102B3000086820F080500860FFE7FFE704980078FD
:102B4000800700280CD5FFE741F20401C4F202011E
:102B5000086820F44040049A926810430860FFE738
:102B600000208DF81700FFE79DF8170006B080BD24
:102B700080B584B002900191029820B9FFE701204E
:102B80008DF80F00D9E002980078800700282AD538
:102B9000FFE7029800784007002809D5FFE741F2D7
:102BA0000401C4F20201086840F4E0600860FFE735
:102BB000029800780007002809D5FFE741F20401D8
:102BC000C4F20201086840F460500860FFE741F277
:102BD0000401C4F20201086820F0F000029A926831
:102BE00010430860FFE702980078C007002860D013
:102BF000FFE70298406801280ED1FFE741F200008C
:102C0000C4F2020000688003002804D4FFE701201A
:102C10008DF80F0091E021E00298406802280ED163
:102C2000FFE741F20000C4F20200006880010028C2
:102C300004D4FFE701208DF80F007EE00DE041F2A3
:102C40000000C4F2020000688007002804D4FFE7F7
:102C500001208DF80F0070E0FFE7FFE741F204016B
:102C6000C4F20201086820F00300029A526810437F
:102C70000860FFF78DFD0090FFE741F20400C4F209
:102C80000200006800F00C0002994968B0EB810F67
:102C90000ED0FFE7FFF77CFD0099401A41F2893121
:102CA000884204D3FFE703208DF80F0045E0E4E7F6
:102CB000FFE702980078400700280CD5FFE741F2B3
:102CC0000401C4F20201086820F4E060029AD268AC
:102CD00010430860FFE702980078000700280DD530
:102CE000FFE741F20401C4F20201086820F46050D9
:102CF000029A126940EAC2000860FFE700F04CF84F
:102D000041F20401C4F202010968C9B20A0945F698
:102D10006041C0F60001895CC84040F20001C2F287
:102D20000001086040F20800C2F200000068FFF7EE
:102D300051FD00208DF80F00FFE79DF80F0004B053
:102D400080BD000040F20000C2F200000068704741
:102D500080B5FFF7F7FF41F20401C4F202010968F0
:102D6000C1F3022245F67041C0F60001895CC840FB
:102D700080BD000080B5FFF7E5FF41F20401C4F219
:102D800002010968C1F3C22245F67041C0F6000194
:102D9000895CC84080BD000086B00020059004908A
:102DA00003900290019041F20400C4F20200006816
:102DB0000590059800F00C000146009100283FD0D6
:102DC000FFE70098042804D0FFE70098082806D001
:102DD00037E041F20020C0F27A00019037E0059818
:102DE000C0F3834145F67840C0F60000405C029095
:102DF0009DF81600C007C0B1FFE741F22C00C4F2F5
:102E00000200006800F00F0145F68840C0F600009F
:102E1000405C0490029841F20021C0F27A014843DC
:102E20000499B0FBF1F0039007E0029840F600111E
:102E3000C0F23D0148430390FFE70398019006E08C
:102E4000FFE741F20020C0F27A000190FFE701980D
:102E500006B0704780B586B00490049820B9FFE7AB
:102E600001208DF817002EE304980078C007002891
:102E700000F0AE80FFE741F20400C4F202000068F7
:102E800000F00C00042813D0FFE741F20400C4F264
:102E90000200006800F00C0008281BD1FFE741F297
:102EA0000400C4F202000068C003002812D5FFE746
:102EB00041F20000C4F2020000688003002808D537
:102EC000FFE70498406820B9FFE701208DF817005C
:102ED000F9E27CE0FFE704984068B0F5803F09D153
:102EE000FFE741F20001C4F20201086840F48030BB
:102EF000086032E00498406868B9FFE741F20001D9
:102F0000C4F20201086820F480300860086820F4E8
:102F10008020086020E004984068B0F5A02F0DD113
:102F2000FFE741F20001C4F20201086840F480208A
:102F30000860086840F4803008600CE041F200014D
:102F4000C4F20201086820F480300860086820F4A8
:102F500080200860FFE7FFE7FFE7FFE7049840688D
:102F6000D0B1FFE7FFF714FC0390FFE741F2000048
:102F7000C4F202000068800300280CD4FFE7FFF7CA
:102F800007FC0399401A652804D3FFE703208DF856
:102F9000170098E2EAE719E0FFF7FAFB0390FFE772
:102FA00041F20000C4F202000068800300280CD542
:102FB000FFE7FFF7EDFB0399401A652804D3FFE70D
:102FC00003208DF817007EE2EAE7FFE7FFE7FFE75F
:102FD000049800788007002840F18D80FFE741F2D7
:102FE0000400C4F20200006810F00C0F13D0FFE7D9
:102FF00041F20400C4F20200006800F00C0008284E
:1030000029D1FFE741F20400C4F202000068C003C6
:10301000002820D4FFE741F20000C4F2020000685B
:103020008007002809D5FFE704980069012804D02B
:10303000FFE701208DF8170045E241F20001C4F2DC
:103040000201086820F0F800049A526940EAC200C0
:103050000860FFE74EE00498006958B3FFE70021DD
:10306000C4F2422101200860FFF792FB0390FFE7C2
:1030700041F20000C4F202000068800700280CD46E
:10308000FFE7FFF785FB0399401A032804D3FFE706
:1030900003208DF8170016E2EAE741F20001C4F2BE
:1030A0000201086820F0F800049A526940EAC20060
:1030B00008601EE00021C4F2422100200860FFF7F2
:1030C00067FB0390FFE741F20000C4F202000068D2
:1030D000800700280CD5FFE7FFF75AFB0399401A39
:1030E000032804D3FFE703208DF81700EBE1EAE79C
:1030F000FFE7FFE7FFE7049800780007002848D5BE
:10310000FFE70498806918B3FFE740F28041C4F2FA
:10311000422101200860FFF73BFB0390FFE741F2EB
:103120002400C4F202000068800700280CD4FFE7E6
:10313000FFF72EFB0399401A032804D3FFE703206F
:103140008DF81700BFE1EAE7012000F06DFF1FE0F6
:1031500040F28041C4F2422100200860FFF718FBD2
:103160000390FFE741F22400C4F2020000688007E8
:1031700000280CD5FFE7FFF70BFB0399401A032843
:1031800004D3FFE703208DF817009CE1EAE7FFE78F
:10319000FFE7049800784007002840F1D880FFE757
:1031A00000208DF8070041F21C00C4F20200006804
:1031B000C000002813D4FFE7FFE741F21C00C4F26F
:1031C0000200016841F080510160006800F0805009
:1031D00000900098FFE701208DF80700FFE747F215
:1031E0000000C4F200000068C005002822D4FFE7F8
:1031F00047F20001C4F20001086840F480700860E2
:10320000FFF7C6FA0390FFE747F20000C4F20000A0
:103210000068C00500280CD4FFE7FFF7B9FA03994E
:10322000401A652804D3FFE703208DF817004AE110
:10323000EAE7FFE7FFE70498C068012809D1FFE744
:1032400041F22001C4F20201086840F00100086068
:1032500031E00498C06868B9FFE741F22001C4F288
:103260000201086820F001000860086820F00400EE
:1032700008601FE00498C06805280DD1FFE741F2FF
:103280002001C4F20201086840F0040008600868E8
:1032900040F0010008600CE041F22001C4F202019C
:1032A000086820F001000860086820F00400086049
:1032B000FFE7FFE7FFE7FFE70498C068E0B1FFE73B
:1032C000FFF766FA0390FFE741F22000C4F2020024
:1032D0000068800700280ED4FFE7FFF759FA03992A
:1032E000401A41F28931884204D3FFE703208DF868
:1032F0001700E8E0E8E71BE0FFF74AFA0390FFE772
:1033000041F22000C4F202000068800700280ED5B8
:10331000FFE7FFF73DFA0399401A41F289318842ED
:1033200004D3FFE703208DF81700CCE0E8E7FFE7C0
:103330009DF80700012809D1FFE741F21C01C4F202
:103340000201086820F080500860FFE7FFE704985A
:10335000C069002800F0B380FFE741F20400C4F226
:103360000200006800F00C00082800F08280FFE7EF
:103370000498C06902285CD1FFE76021C4F24221B1
:1033800000200860FFF704FA0390FFE741F2000015
:10339000C4F202000068800100280CD5FFE7FFF7A7
:1033A000F7F90399401A032804D3FFE703208DF8A7
:1033B000170088E0EAE70498006AB0F5803F0CD176
:1033C000FFE741F22C01C4F20201086820F00F006F
:1033D000049A926810430860FFE741F20401C4F2C6
:1033E0000201086820F47410049B1A6A5B6A1A438D
:1033F000104308606021C4F2422101200860FFF7F9
:10340000C7F90390FFE741F20000C4F20200006830
:10341000800100280CD4FFE7FFF7BAF90399401A9E
:10342000032804D3FFE703208DF817004BE0EAE7F9
:103430001EE06021C4F2422100200860FFF7A8F9D5
:103440000390FFE741F20000C4F20200006880012F
:1034500000280CD5FFE7FFF79BF90399401A0328D2
:1034600004D3FFE703208DF817002CE0EAE7FFE71D
:1034700024E00498C069012804D1FFE701208DF8F9
:10348000170020E041F20400C4F20200006802903C
:10349000029800F480300499096A884208D1FFE755
:1034A000029800F470100499496A884204D0FFE73A
:1034B00001208DF8170006E0FFE7FFE7FFE7002097
:1034C0008DF81700FFE79DF8170006B080BD0000DB
:1034D00080B582B00190019800F0F4FD02B080BD8B
:1034E00085B003900291FFE7039890F83C00012813
:1034F00004D1FFE702208DF8130064E00399012056
:1035000081F83C00FFE7FFE70399022081F83D00C6
:1035100003980068406801900398006880680090F4
:10352000019820F07000019002980168019808430A
:10353000019001980399096848600398006842F671
:103540000041C4F20101884221D0FFE703980068DE
:10355000B0F1804F1BD0FFE70398006840F20041B4
:10356000C4F20001884212D0FFE70398006840F6D9
:103570000001C4F20001884209D0FFE70398006807
:1035800044F20001C4F2010188420ED1FFE7009825
:1035900020F0800000900298416800980843009055
:1035A0000098039909688860FFE70399012081F872
:1035B0003D00FFE70399002081F83C00FFE7002071
:1035C0008DF81300FFE79DF8130005B07047000069
:1035D00080B582B00090009820B9FFE701208DF8F7
:1035E00007003FE0009890F83D0040B9FFE70099E0
:1035F000002081F83C00009800F038F8FFE70099BF
:10360000022081F83D00009951F8040B00F0CCFD38
:103610000099012081F84600FFE70099012081F818
:103620003E00009981F83F00009981F84000009920
:1036300081F84100FFE7FFE70099012081F842008F
:10364000009981F84300009981F84400009981F8BD
:103650004500FFE70099012081F83D0000208DF82A
:103660000700FFE79DF8070002B080BD82B001901F
:1036700001980068B0F1804F10D1FFE7FFE741F2F9
:103680001C00C4F20200016841F001010160006801
:1036900000F0010000900098FFE7FFE702B07047DC
:1036A00083B00190019890F83D00012804D0FFE715
:1036B00001208DF80B004AE00199022081F83D00BD
:1036C0000198006842F60041C4F20101884221D00D
:1036D000FFE701980068B0F1804F1BD0FFE7019829
:1036E000006840F20041C4F20001884212D0FFE7B6
:1036F0000198006840F60001C4F20001884209D038
:10370000FFE70198006844F20001C4F20101884219
:1037100012D1FFE701980068806800F00700009070
:103720000098062807D0FFE701980168086840F074
:1037300001000860FFE706E001980168086840F0B2
:1037400001000860FFE700208DF80B00FFE79DF8FF
:103750000B0003B07047000080B586B00490039161
:1037600000208DF80B00FFE7049890F83C0001283A
:1037700004D1FFE702208DF81700ABE00499012087
:1037800081F83C00FFE7FFE70499022081F83D0043
:103790000498006880680190019820F077000190FB
:1037A000019820F47F40019001980499096888608D
:1037B000039800680090002872D0FFE70098102856
:1037C0006ED0FFE7009820286AD0FFE700983028E5
:1037D00066D0FFE70098402855D0FFE700985028B2
:1037E00037D0FFE70098602840D0FFE700987028A6
:1037F0000BD0FFE70098B0F5805F05D0FFE7009899
:10380000B0F5005F16D052E055E004980068039BC5
:103810005A689968DB6800F07BFD0498006880684E
:103820000190019840F0770001900198049909688F
:10383000886040E004980068039B5A689968DB68D8
:1038400000F066FD04980168886840F48040886054
:1038500031E004980068039A5168D26800F088FD4E
:1038600004980068502100F06DFD24E00498006881
:10387000039A5168D26800F0A3FD049800686021A3
:1038800000F060FD17E004980068039A5168D26860
:1038900000F06EFD04980068402100F053FD0AE03E
:1038A000049800680399096800F04CFD03E00120CA
:1038B0008DF80B00FFE70499012081F83D00FFE738
:1038C0000499002081F83C00FFE79DF80B008DF87B
:1038D0001700FFE79DF8170006B080BD80B582B0E5
:1038E0000090009820B9FFE701208DF8070040E024
:1038F0000098806908B1FFE700E0FFE7009890F8C2
:10390000410040B9FFE70099002081F8400000988D
:1039100000F034F8FFE70099242081F84100009876
:103920000168C86820F40050C860009800F0BCFD31
:1039300000980168086920F49040086100980168C7
:10394000486920F02A00486100980168C86840F47E
:103950000050C860009900204864009A202182F835
:103960004110009A82F84210009948638DF80700D0
:10397000FFE79DF8070002B080BD000080B58AB067
:10398000099000200890079006900590099800681B
:1039900043F60001C4F20101884239D1FFE7FFE795
:1039A00041F21800C4F20200016841F48041016054
:1039B000006800F4804004900498FFE7FFE741F2BC
:1039C0001800C4F20200016841F0040101600068BF
:1039D00000F0040003900398FFE74FF40070059097
:1039E000022006900320089040F60000C4F2010077
:1039F000019005A90291FEF70BFD019802994FF481
:103A000080620592002206920792FEF701FDFFE711
:103A10000AB080BD80B58AB008900791ADF81A2031
:103A2000059300200290089890F84100202840F06B
:103A30008180FFE7079820B1FFE7BDF81A0020B9A1
:103A4000FFE701208DF8270078E0089900204864FE
:103A50000899212081F84100FEF79AFE0290BDF8F6
:103A60001A0008998884BDF81A000899C884089833
:103A70008068B0F5805F09D1FFE70898006928B930
:103A8000FFE7002004900798039004E00798049053
:103A900000200390FFE7FFE70898C08C78B3FFE7AA
:103AA0000898029B05996A4611608021002200F067
:103AB00085FD40B1FFE70899202081F841000320EF
:103AC0008DF827003AE0049858B9FFE7039800887A
:103AD0006FF35F20089909684860039802300390EB
:103AE00008E0049800780899096848600498013053
:103AF0000490FFE70899C88C0138C884CCE708987F
:103B0000029B05996A4611604021002200F056FD93
:103B100040B1FFE70899202081F8410003208DF88B
:103B200027000BE00899202081F8410000208DF843
:103B3000270003E002208DF82700FFE79DF827000B
:103B40000AB080BDFFE7FEE72DE9F0419CB040F6EA
:103B50000040C4F2010010904FF48051FEF7E8FDE0
:103B600001461098B1FA81F149098DF86F104FF4B0
:103B70000051FEF7DDFDB0FA80F040098DF86E00CF
:103B800040F28000C2F200001190006801F0F4FDE4
:103B9000014611981A91006812901A9801F008FED7
:103BA0000146129801F064FF0021C4F2201101F0D7
:103BB00093FE01F0E1FD19901998B0F1FF3F04DC8C
:103BC000FFE7199840421990FFE740F27000C2F2F7
:103BD00000000E90006801F0CFFD01460E9818918C
:103BE00000680F90189801F0E3FD01460F9801F06E
:103BF0003FFF0021C4F2201101F06EFE01F0BCFD78
:103C000017901798B0F1FF3F04DCFFE71798404288
:103C10001790FFE740F24420C2F200000C900068C9
:103C200001F0AAFD01460C98169100680D901698B7
:103C300001F0BEFD01460D9801F01AFF0021C4F20B
:103C4000201101F049FE01F097FD15901598B0F193
:103C5000FF3F04DCFFE7159840421590FFE740F274
:103C60003C20C2F200000A90006801F085FD014688
:103C70000A98149100680B90149801F099FD014680
:103C80000B9801F0F5FE0021C4F2201101F024FE92
:103C900001F072FD13901398B0F1FF3F04DCFFE7D1
:103CA000139840421390FFE71A9B1998189ADDF871
:103CB0005CC0DDF858E0159C149D139E9DF86F7054
:103CC0009DF86E806946C1F82080CF618E614D619C
:103CD0000C61C1F80CE0C1F808C04A60086040F20D
:103CE0009C10C2F20000099045F69842C0F600020E
:103CF0009621FCF7EFFA0998FCF70CFB099982B2C0
:103D000040F25410C2F200006423FFF783FE1CB09F
:103D1000BDE8F08180B584B000210391029101914A
:103D200040F29800C2F20000009042F20042C4F259
:103D3000010202604FF480728260012202730175F9
:103D40004FF46022C261416004210161FDF724FF4C
:103D500018B1FFE7FDF76CFDFFE70120019002902D
:103D60000520039040F29800C2F2000001A9FDF77F
:103D70002DFE18B1FFE7FDF75BFDFFE70220019084
:103D8000029040F29800C2F2000001A9FDF71EFE69
:103D900018B1FFE7FDF74CFDFFE70320019002900B
:103DA00040F29800C2F2000001A9FDF70FFE18B121
:103DB000FFE7FDF73DFDFFE704200190029040F290
:103DC0009800C2F2000001A9FDF700FE18B1FFE75C
:103DD000FDF72EFDFFE704B080BD000080B582B086
:103DE000FFE741F21400C4F20200016841F0010152
:103DF0000160006800F0010001900198FFE70B20CE
:103E0000009000221146FEF759FD0098FEF74CFD88
:103E100002B080BD80B58EB000200D900C900B904C
:103E20000A90FFE741F21800C4F20200016841F075
:103E300010010160006800F0100009900998FFE788
:103E4000FFE741F21800C4F20200016841F02001CE
:103E50000160006800F0200008900898FFE7FFE785
:103E600041F21800C4F20200016841F0040101604F
:103E7000006800F0040007900798FFE7FFE741F2B1
:103E80001800C4F20200016841F0080101600068F6
:103E900000F0080006900698FFE740F60040C4F2E4
:103EA000010004904FF44051019101220292FEF76B
:103EB00057FC20200A90002003900B900C9040F6B5
:103EC0000000C4F201000AA90591FEF7A1FADDF88D
:103ED00004C0029B039A04980599CDF828C00B935F
:103EE0000C9202220D92FEF793FA0EB080BD0000F4
:103EF00080B588B000210191079106910591049148
:103F00000391029140F20C10C2F200004FF0804287
:103F100002601722426081604FF6FF72C260016149
:103F20008161FFF755FB18B1FFE7FDF781FCFFE763
:103F30004FF48050049040F20C10C2F2000004A92B
:103F4000FFF70AFC18B1FFE7FDF772FCFFE700205E
:103F50000290039040F20C10C2F2000002A9FFF799
:103F6000BFFA18B1FFE7FDF763FCFFE708B080BDBB
:103F700080B582B040F25410C2F20000019043F6C6
:103F80000001C4F2010101604FF4E1314160002100
:103F90008160C16001610C2242618161C161FFF7F2
:103FA0009DFC18B1FFE7FDF743FCFFE702B080BDC1
:103FB000FFE7FEE7FFE7FEE788B00790069105926E
:103FC000079800F0070004900498C0F10700052846
:103FD00003D3FFE70420019004E00498C0F1070038
:103FE0000190FFE70198039004980430062803D855
:103FF000FFE70020009003E0049803380090FFE7FB
:104000000098029006980399012202FA01F1013901
:104010000840029B984005999A40013A1140084394
:1040200008B070477047000082B00190019840F2DC
:104030000001C2F200010968C90844F6D352C1F276
:104040006202A1FB0221890948430090FFE700BFFB
:10405000FFE70098411E00910028F8D1FFE702B069
:10406000704700007047000080B586B00590ADF83D
:10407000121000200390029001900090BDF81210E1
:1040800000910190029005986946FEF7C1F906B0CB
:1040900080BD000080B586B00590ADF812100020FC
:1040A0000390029001900090BDF812000090012052
:1040B00001900320039005986946FEF7A9F906B020
:1040C00080BD000080B582B0009000980138B0F14A
:1040D000807F03D3FFE70120019019E000980138A9
:1040E0004EF21401CEF2000108604FF0FF300F21B4
:1040F00000F0F4FA4EF21801CEF200010020086040
:104100004EF21002CEF20002072111600190FFE78B
:10411000019802B080BD000080B5FEF73FFB80BD76
:1041200080B594B00AA800902821FCF712F90098F5
:10413000002101910991089107910691059104913F
:104140000391029102220A9201230E9310230F93EE
:10415000119212914FF480111391FEF77BFE18B16A
:10416000FFE7FDF765FBFFE70F20059002200690B3
:10417000002107910891099105A8FEF7F9FC18B1F3
:10418000FFE7FDF755FBFFE70220029000200490B7
:1041900002A8FEF71BFC18B1FFE7FDF749FBFFE79C
:1041A00014B080BD7047000083B002900191029866
:1041B00000680090029842F60041C4F20101884272
:1041C00015D0FFE70298B0F1804F10D0FFE70298BA
:1041D00040F20041C4F20001884208D0FFE7029893
:1041E00040F60001C4F2000188420AD1FFE70098BE
:1041F00020F07000009001984168009808430090FA
:10420000FFE7029842F60041C4F2010188422DD036
:10421000FFE70298B0F1804F28D0FFE7029840F204
:104220000041C4F20001884220D0FFE7029840F626
:104230000001C4F20001884218D0FFE7029844F25E
:104240000001C4F20101884210D0FFE7029844F255
:104250000041C4F20101884208D0FFE7029844F609
:104260000001C4F2010188420AD1FFE7009820F45E
:10427000407000900198C168009808430090FFE7E3
:10428000009820F080000199496908430090009847
:1042900002990860019880680299C86201980068D4
:1042A00002998862029842F60041C4F201018842F4
:1042B00018D0FFE7029844F20001C4F201018842DD
:1042C00010D0FFE7029844F20041C4F20101884295
:1042D00008D0FFE7029844F60001C4F201018842C9
:1042E00005D1FFE70198006902990863FFE7029989
:1042F0000120486102980069C00730B1FFE70299C8
:10430000086920F001000861FFE703B07047000072
:1043100085B0049003910292019304988068009004
:10432000009820F47F40009003980299019A41EA96
:104330000221014300980843009000980499886086
:1043400005B0704783B00290019102988068009098
:10435000009820F07000009001980099084340F008
:104360000700009000980299886003B07047000031
:1043700085B00490039102920498006A0090049919
:10438000086A20F001000862049880690190019891
:1043900020F0F00001900299019840EA011001908C
:1043A000009820F00A0000900399009808430090BC
:1043B00001980499886100980499086205B07047D3
:1043C00085B00490039102920498006A00900499C9
:1043D000086A20F010000862049880690190019832
:1043E00020F4704001900299019840EA0130019058
:1043F000009820F0A00000900399009840EA011076
:10440000009001980499886100980499086205B0A9
:104410007047000084B00390FFE7FFE7039800684F
:1044200050E8030F20F490700290FFE70299039880
:10443000026842E803100028F0D1FFE7FFE7FFE73A
:10444000FFE70398006850E8050F20F00100019095
:10445000FFE701990398026842E805100028F0D1AF
:10446000FFE7FFE70398006B012814D1FFE7FFE7A0
:10447000FFE70398006850E8030F20F01000009059
:10448000FFE700990398026842E803100028F0D182
:10449000FFE7FFE7FFE70399202081F84200039937
:1044A0000020086304B0704780B584B0039003987F
:1044B0000068006920F44050039A1168D2681043E4
:1044C0000861039988680B694A69C96918431043F0
:1044D0000843029003980068C06849F20C61884361
:1044E0000299084303990968C86003980068406905
:1044F00020F44070039A1168926910434861039850
:10450000006843F60001C4F20101884204D1FFE7CC
:10451000FEF730FC019003E0FEF71AFC0190FFE784
:104520000398C069B0F5004F24D1FFE70198192125
:104530004843039A116852685200B0FBF2FE48F2F9
:104540001F53C5F2EB13AEFB0320420910014FF0DD
:10455000640C02FB1CEC322202EBCC02A2FB033205
:10456000F82303EA521300EB4300C2F34212104453
:10457000886021E0019819214843039A1168526824
:104580009200B0FBF2FC48F21F52C5F2EB12ACFBFA
:1045900002304309642003FB10CC322000EB0C10E6
:1045A000A0FB0202F02000EA521000EB0310C2F35D
:1045B000431210448860FFE704B080BD80B586B028
:1045C000DDF820C0049003918DF80B200193FFE7E4
:1045D00004980068006803990840401AB0FA80F017
:1045E00040099DF80B1088424DD1FFE70898013033
:1045F000002847D0FFE7FEF7CBF80199401A089949
:10460000884203D8FFE7089820B9FFE703208DF818
:1046100017003CE004980068C0684007002830D5C7
:10462000FFE7039880282CD0FFE70398402828D084
:10463000FFE704980068006800F008010120B0EB73
:10464000D10F1DD1FFE7FFE700200090049800681C
:104650000068009004980068406800900098FFE7A8
:104660000498FFF7D7FE049908204864FFE70499EF
:10467000002081F84000FFE701208DF8170006E0D8
:10468000FFE7FFE7A4E700208DF81700FFE79DF89C
:10469000170006B080BD0000FFE7FEE781B08DF88F
:1046A00003009DF9030000280ED4FFE79DF90310D5
:1046B00001F01F02012090404A094EF20011CEF293
:1046C000000141F82200FFE701B070474EF60C50A0
:1046D000CEF200000068C0F30220704782B08DF86F
:1046E000070000919DF9070000280AD4FFE7009811
:1046F00000019DF907104EF20042CEF200028854EC
:104700000BE0009800019DF8071001F00F014EF634
:104710001452CEF200028854FFE702B07047000046
:1047200083B00290029800F0070000904EF60C5102
:10473000CEF200010868019001984FF6FF02104088
:1047400001900198009A40EA02200022C0F2FA5239
:10475000104301900198086003B0704781B0ADF834
:10476000020040F20C10C2F2000001680020486212
:10477000FFE740F20C10C2F200000068406ABDF88A
:104780000210884201D2FFE7F3E701B07047000052
:1047900080B592B000201090FEF70EF8FFF7C0FC35
:1047A000FFF738FBFFF71AFBFFF7B4FAFFF7E0FB60
:1047B000FFF79EFB40F20C10C2F20000FEF770FF04
:1047C00040F29800C2F200000A90FDF739F80A980A
:1047D00040F28401C2F200010422FDF74DFB4FF4C8
:1047E0007A70FDF7F3FDFFE740F28401C2F20001A9
:1047F000059108684A6810448968084400F0F0FF91
:104800000021C4F2400100F0C1FE0146059840F2CB
:104810003422C2F2000206921160C06800F0E0FF8C
:104820000021C4F2C821079101F056F84FF20001AF
:10483000C4F27F5100F0AAFE0146069840F23C22E5
:10484000C2F20002116042F20001C4F219510F914C
:104850000021C4F25C410E9100680F99089101F0AB
:1048600007F9079901F038F8089909900E9801F0B6
:10487000FFF80146099800F089FE014640F2442005
:10488000C2F2000001600068002100F05EFE38B94D
:10489000FFE740F24421C2F200010020086015E069
:1048A00040F24420C2F2000000680021C4F2C82196
:1048B00000F052FE48B9FFE740F24421C2F2000185
:1048C0000020C4F2C8200860FFE7FFE740F2840040
:1048D000C2F20000C06800F083FF0021C4F2C821CA
:1048E000029100F0F9FF4FF20001C4F27F5100F095
:1048F0004DFE0D9048F21F50C4F2DB000C900020DA
:10490000C4F20A200B900D980C99039101F0B0F8B5
:10491000029900F0E1FF039904900B9801F0A8F8C8
:104920000146049800F032FE014640F23C20C2F2FB
:10493000000001600068002100F007FE38B9FFE7C1
:1049400040F23C21C2F2000100200860FFE740F283
:104950003C20C2F2000000680021C4F2C82100F02F
:10496000FBFD48B9FFE740F23C21C2F20001002004
:10497000C4F2C8200860FFE740F23C20C2F2000009
:1049800000680021C4F2F01100F0DFFD80B9FFE7FC
:1049900040F23821C2F200010020087040F60040C9
:1049A000C4F201004FF400510122FDF7D9FE47E0A7
:1049B00040F23820C2F200000078E0B9FFE740F290
:1049C0004420C2F2000000680021C4F2202100F05F
:1049D000B5FD80B9FFE740F23821C2F200010120A5
:1049E000087040F60040C4F201004FF4005100226C
:1049F000FDF7B6FE23E040F23820C2F20000007856
:104A0000E0B1FFE740F24420C2F20000006800215C
:104A1000C4F2702100F0A7FD80B9FFE740F2382111
:104A2000C2F200010020087040F60040C4F201000C
:104A30004FF400510122FDF793FEFFE7FFE7FFE788
:104A4000EFF3108072B61190FCF79EFEFCF714FE97
:104A5000014640F27400C2F20000017000780128A3
:104A600024D1FFE7FCF73EFE40F27801C2F20001DC
:104A70000870FCF737FE40F27901C2F200010870BD
:104A8000FCF730FE40F27E01C2F200010870FCF734
:104A900029FE40F27F01C2F200010870FCF722FEFD
:104AA00040F27A01C2F200010870FFE762B640F2FC
:104AB0007400C2F200000078012871D1FFE740F2D3
:104AC0007A00C2F20000007840F27801C2F20001E0
:104AD000097840F27902C2F200021278114440F2E1
:104AE0007E02C2F200021278114440F27F02C2F24A
:104AF000000212781144C9B2884250D1FFE740F257
:104B00007E00C2F200000190007800F07F0140F2C8
:104B10007F00C2F20000007840EA012140F27C00F0
:104B2000C2F200000180008800F05AFE0021C4F2A9
:104B3000201100F02BFD0146019840F28002C2F2E4
:104B40000002116000780006002809D5FFE740F256
:104B50008001C2F20001086880F000400860FFE7B1
:104B600040F27800C2F20000017840F27900C2F20F
:104B70000000007840EA012140F27600C2F2000015
:104B80000180008800F02CFE0021C4F2201100F00A
:104B9000FDFC40F27001C2F200010860FFE7FFE790
:104BA00040F29400C2F200000078E0B9FFE740F262
:104BB0008000C2F2000000680021C4F2A81100F0D9
:104BC000D2FC80B9FFE740F29401C2F2000101205B
:104BD000087040F60040C4F201004FF480510022FA
:104BE000FDF7BEFD23E040F29400C2F20000007821
:104BF000E0B1FFE740F28000C2F20000006800214F
:104C0000C4F2A81100F0A1FC80B9FFE740F29401C2
:104C1000C2F200010020087040F60040C4F201001A
:104C20004FF480510122FDF79BFDFFE7FFE7FEF700
:104C30008BFF4FF4FA60FDF7C9FBD5E55FEA400C46
:104C400008BF91F0000F4FEA8C234FEAC12243EADC
:104C500051514FEA1C5018BF00F5F0404FEA3000A8
:104C600018BF41F000415FEA6C5C00F02980BCF1A4
:104C7000FF3F08BF40F080407047130C06BF12048E
:104C80004FF0100C4FF0000C130E04BF12020CF189
:104C9000080C130F04BF12010CF1040C930F04BF96
:104CA00092000CF1020CD30F04BF52000CF1010C66
:104CB00011464FF00002A0F11F00A0EB0C0070475E
:104CC00011F0004F08BF704731F000413FF4D5AFFD
:104CD0000B0C06BF09044FF0100C4FF0000C0B0E2C
:104CE00004BF09020CF1080C0B0F04BF09010CF101
:104CF000040C8B0F04BF89000CF1020CCB0F04BF16
:104D000049000CF1010CCCF1200322FA03F341EA33
:104D1000030102FA0CF2A0EB0C0000F10100704755
:104D200023F07F4720F07F4C80EA030000F0004032
:104D3000ACEB070303F57C5303F1FF032DE9804936
:104D400009B44FEA144324EA03484FEA154B25EA15
:104D50000B4E0FF2042606EB13273E7803FB066783
:104D6000C7F5000707FB06F64FEAD64606F102062E
:104D70004FEA543707FB066CCCF1005C4FEA1C4746
:104D80002CEA074C0CFB06F507FB06F404EB154672
:104D90004FEA961649085FEA320234BF00204FF00E
:104DA00000404FEAD13706FB07FC4FEA1C4C0CFBD6
:104DB0000BF7D21B03FB0CF761EB07010CFB0EF7A3
:104DC000B0EB074072EB17420CFB08F734BFA2EBC5
:104DD0000742B2EB074261EB17414FEA0C444FEA3E
:104DE000910706FB07FC4FEA1C4C0CFB0BF7B0EBE2
:104DF000C74072EB573203FB0CF734BFA2EBC7423C
:104E0000B2EBC74261EB57310CFB0EF7B0EBC700BA
:104E100072EB57720CFB08F734BFA2EBC702B2EB80
:104E2000C70261EB57714FEA816141EA92114FEA83
:104E3000826242EA90124FEA806004EBCC04039F46
:104E40004FEAD13706FB07FC4FEA1C4C0CFB0BF773
:104E5000D21B03FB0CF761EB07010CFB0EF7B0EB69
:104E6000074072EB17420CFB08F734BFA2EB074276
:104E7000B2EB074261EB17414FEA8C5504EB9C24DF
:104E80004FEA910706FB07FC4FEA1C4C0CFB0BF7A3
:104E9000B0EBC74072EB573203FB0CF734BFA2EB09
:104EA000C742B2EBC74261EB57310CFB0EF7B0EBD8
:104EB000C70072EB57720CFB08F734BFA2EBC702B6
:104EC000B2EBC70261EB57714FEA816141EA92117F
:104ED0004FEA826242EA90124FEA806015EB4C255D
:104EE00044F100044FEAD13706FB07FC4FEA1C4CA3
:104EF0000CFB0BF7D21B03FB0CF761EB07010CFB60
:104F00000EF7B0EB074072EB17420CFB08F734BF0B
:104F1000A2EB0742B2EB074261EB17414FEA813146
:104F200041EA92414FEA823242EA90424FEA8030AF
:104F30004FEA0C7615EB1C1544F1000448EA0343D4
:104F40004EEA0B484FF0000EB2EB080C71EB030772
:104F500024BF624639464EEB0E0E4FF0000B001890
:104F6000524149414BEB0B0BB2EB080C71EB0307C1
:104F70007BF1000B24BF624639464EEB0E0E4FF01C
:104F8000000B0018524149414BEB0B0BB2EB080CE4
:104F900071EB03077BF1000B24BF624639464EEBF1
:104FA0000E0E51EA020718BF46F0010616EB0E7608
:104FB00055F1000254F1000103D5BDE88901BDE8B7
:104FC0000088BDE88901BDE80048B619524141EBAF
:104FD0000101A3F10103704780807F7E7D7C7B7A95
:104FE0007978777676757473727171706F6E6E6D95
:104FF0006C6C6B6A6A69686867666665646463633B
:1050000062616160605F5F5E5E5D5D5C5C5B5B5AC0
:105010005A5959585857575656555555545453532D
:1050200052525251515050504F4F4F4E4E4D4D4D88
:105030004C4C4C4B4B4B4A4A4A49494948484847D3
:105040004747474646464545454444444443434311
:1050500043424242424141419C46002B30D47700BA
:105060002BD04FEA37071CB503B44FF010004FF0B8
:105070001001BAF1000F06D0BCF1000FDCBF40F008
:10508000080040F008014FF000000FBCBDE81040E0
:105090000BF1010BBBF1010F08BF5FEA170722BF3D
:1050A00012F1010211F101014FF0004143F100033F
:1050B00000F0004043EA00007047F9D35708D0E7FA
:1050C00046EA06464FEA164613F1400F1FDD13F17C
:1050D000200FDFBF16430A46002120335B42BED0BB
:1050E000C3F1200746EA06464FEA164602FA07F7DA
:1050F00046EA070622FA03F2C3F1200701FA07F78E
:1051000042EA070221FA03F14FF00003A7E746EA5B
:10511000020646EA06464FEA164646EA0106BCBFC4
:1051200046EA0646360C4FF000034FF000024FF0FF
:10513000000194E72DE9804C70B49A46934691E8BB
:10514000380007C831EA400C48BF34EA430C03D5A5
:10515000FFF7E6FDFFF780FFF0BCBDE8008C2DE90E
:10516000804C70B49A46934691E8380007C810F016
:10517000804F08BF13F0804F03D100F005F8FFF710
:105180006BFFF0BCBDE8008C20F07F4723F07F4C24
:1051900080EA030000F0004007EB0C03A3F57C530A
:1051A000A3F1FE0392F0000F00F0B38095F0000F22
:1051B00000F077802DE901494FEA114021EA0048CB
:1051C0004FEA144624EA064700FB06FC08FB06F6F5
:1051D00007FB08F818EB06484CEB164C00FB07F7EA
:1051E00018EB07484CEB17404FEA124B22EA0B4EE4
:1051F0004FEA154625EA06470BFB06FC0EFB06F6B2
:1052000007FB0EFE1EEB064E4CEB164C0BFB07F796
:105210001EEB074E4CEB174B18EB0B0840F1000050
:1052200018EB0E0B58EB000840F100008F1A4FF0FE
:1052300000014FF000063CBFC943661B14BFB5EB2D
:10524000040C00213CBFC943F61B4FEA174427EA70
:1052500004454FEA1C472CEA074C04FB076205FB98
:1052600007F70CFB05F616EB074642EB174204FB6B
:105270000CFC16EB0C4642EB1C421BEB060658EBF3
:10528000020241414EEA8E0E46EA9E0601D5BDE875
:105290000189B619524141EB0101A3F10103BDE8B7
:1052A00001894FEA144524EA05464FEA114721EAED
:1052B000074C05FB07F406FB07F70CFB06F111EBA7
:1052C000074144EB174405FB0CFC11EB0C4144EB8C
:1052D0001C444FEA124722EA074C05FB07F206FB83
:1052E00007F70CFB06F616EB074642EB174205FBE9
:1052F0000CFC16EB0C4642EB1C456A1854F10001FD
:1053000048BF7047B619524141EB0101A3F10103B7
:10531000704795F0000F37D04FEA114221EA02465C
:105320004FEA144724EA074C02FB07F106FB07F794
:105330000CFB06F414EB074441EB174102FB0CFC99
:1053400014EB0C4441EB1C414FEA154725EA074C8E
:1053500002FB07F506FB07F70CFB06F616EB074604
:1053600045EB174502FB0CFC16EB0C4645EB1C42CB
:10537000121951F1000148BF7047B619524141EB73
:105380000101A3F1010370474FEA144524EA0546E1
:105390004FEA114721EA074C05FB07F106FB07F727
:1053A0000CFB06F212EB074241EB174105FB0CFC2C
:1053B00012EB0C4251EB1C414FF0000648BF704706
:1053C000921841EB0101A3F101037047490050EA33
:1053D000C12018BF04204A0D18BF40F0010040F260
:1053E000FF72B2EB515F08BF40F00200012808BF16
:1053F0000520704730380A2801D20120704700206C
:105400007047000010B500290AD00878002807D09E
:1054100005487844FBF7E8FF002801D0002010BDC4
:105420000248784410BD0000F2080000EA080000BD
:1054300010B500290AD00878002807D0054878441C
:10544000FBF7D2FF002801D0002010BD02487844AD
:1054500010BD0000E2080000DA08000090EA010F29
:1054600048BF81F0004100F10A83421A3CBF801A14
:1054700089184FEAD052A2EBD1534FF07F4C1CEA6F
:10548000410F18BF9CEA026F00F03B804FF0004CC8
:105490004CEA00204CEA012121FA03FC10EB0C0C31
:1054A0001ED202F1FF325FEA1C2040EBC25038BF2F
:1054B00070471CF07F0F4FEA400C18BFBCF17F4FC4
:1054C00038BF7047C3F12003994008BF20F00100A6
:1054D000BCF17F4F38BF7047A0F1C04000F0C3BAA5
:1054E0004FEA3C00000A40EBC25028BF1CF0FF0FFF
:1054F0004FEA400CE6D018BFBCF17F4F38BF704771
:10550000EAE79CEA026F05D010EA5C0F08BF00F0E2
:105510000040704710B500F060FA00BF64FBBE3E6B
:1055200010B500F0F5F80CBF0120002010BD10B53B
:1055300000F0EEF814BF0120002010BD10B500F0FF
:1055400063F98CBF0120002010BD10B500F05CF99C
:105550002CBF0120002010BD10B500F089F994BFC8
:105560000120002010BD10B500F082F934BF0120E9
:10557000002010BD401058BFC0F14040491058BF36
:10558000C1F140418142EFF3008070474FF47F0C3E
:105590001CEAD0121EBF1CEAD11392EA0C0F93EA48
:1055A0000C0F00F0858090EA010F48BF42F4807232
:1055B00040F4000C41F400002CF07F4120F07F40CB
:1055C00000B5A2EB030281420FF2081CACEB504E77
:1055D0009EF800E0C0F100004FEA4E0E00FB0EFC0A
:1055E00038BF49004FEA2C1C0CFB0EF34FEACE1ECD
:1055F0000EEB635E4FEA112C0EFB0CFC4FEAC1214F
:105600004FEA1C5300FB031102F5FA024FEA112C7A
:105610000EFB0CFC4FEA01314FEADC4C00FB0C1195
:1056200042EB2242C14228BF09184CEB03335DF81C
:1056300004EB10EB410143EBC250B2F57C0F38BFD5
:10564000704729D512F0F00F1CBF00F1C04000F0E8
:1056500000407047008182838485868788898B8C8F
:105660008D8E8F919293959697999A9C9D9FA0A2CB
:10567000A3A5A7A8AAACAEB0B2B3B5B7B9BCBEC01B
:10568000C2C5C7C9CCCED1D4D7D9DCDFE2E6E9ECBC
:10569000F0F3F7FAFE0000004FEA400C0CF1807CBA
:1056A000BCF17E4F28BF7047B0F1C04000F0DBB9BD
:1056B0000CEAD11390EA010F48BF42F480726245B0
:1056C00038BF634507D213F47F0F16D080EA01007C
:1056D00000F00040704710B500F07FF9097EFC3EF5
:1056E00000F005B880EA010000F00040704780EA51
:1056F000010000F0004000F0B6B912F47F0F04BFC3
:105700000248704780EA010000F0ADB90000C07F98
:1057100050EA010C00F113801CF5000F58BFBCF5D6
:10572000000F01D48842704707D710F5000F58BF0B
:1057300011F5000F15D488427047894270471CF557
:10574000000F04D5BCF5000FF7D5814270474FF02C
:10575000807C1CEB400F38BF1CEB410F01D2814213
:10576000704710B500F039F9922449004FF000500D
:105770004FF08051FFF7FEBE41000B0ED3F19E02A9
:1057800008D950F400034FEA032323FA02F048BF7C
:105790004042704710B500F020F900BF49922480C4
:1057A000002070476FF0004282EA2000704700003E
:1057B00010F0004148BF4042B0FA80F310FA03F203
:1057C000C3F19D030BD051EAC35101EB12205306E4
:1057D00038BF704700F1010008BF20F0010070479A
:1057E000B0FA80F310FA03F2C3F19D030AD0D90591
:1057F00001EB1220530638BF704700F1010008BFCB
:1058000020F001007047000050EA010C00F1138005
:105810001CF5000F58BFBCF5000F01D4884270473B
:1058200007D710F5000F58BF11F5000F15D48842A7
:105830007047894270471CF5000F04D5BCF5000F76
:10584000F7D5814270474FF0807C1CEB400F38BF8A
:105850001CEB410F01D28142704710B500F0BDF83A
:10586000922449004FF080504FF00051FFF782BE64
:1058700050EA010C00F113801CF5000F58BFBCF575
:10588000000F01D48842704707D710F5000F58BFAA
:1058900011F5000F15D488427047894270471CF5F6
:1058A000000F04D5BCF5000FF7D5814270474FF0CB
:1058B000807C1CEB400F38BF1CEB410F01D28142B2
:1058C000704710B500F089F8922449004FF000505D
:1058D0004FF08051FFF74EBE4FF47F0C1CEAD01200
:1058E0001EBF1CEAD11392EA0C0F93EA0C0F00F0D2
:1058F000478090EA010F48BF42F480724FF0004C9D
:105900004CEA00204CEA012102EB0302A0FB011348
:10591000A2F50002002918BF43F001035B0028BF75
:105920004FEA330342EB22425FEA132C4CEBC250A6
:105930002EBFBCEB436FB2F57C0F70474FEA036C90
:10594000BCF1004F08BF20F00100B2F57C0F38BF5A
:1059500070470BD582F0FF0212F5803FC8BF704739
:1059600000F1C040D8BF00F00040704700F5000CC7
:105970005FEA4C0C48BF7047B0F1C04000F073B80C
:105980000CEAD11390EA010F48BF42F480726245DD
:1059900038BF634504D280EA010000F00040704740
:1059A00010B500F01AF800BF8900013E00F007B8FA
:1059B00000F009B85FEA410C5FEA1C6C08D080EA8D
:1059C000010000F050B85FEA400C5FEA1C6CF6D1B1
:1059D0004FF00040A0F5800070470EF1020E2EF04F
:1059E000030E5EF8044B244204D44FEA4102B2F1A4
:1059F0007F4F11D84FEA4003B3F17F4F0CD80ED13F
:105A00004FEAD07C0CEB4C0C0CF1020CB2F17F4F46
:105A100008BF4CEBD17C04E04FF0080C01E04FEAEA
:105A2000D17C0CEB4C0324FA03F404F00704B4F12A
:105A3000040C06D20EEB840CBDE810404CF0010CB7
:105A40006047DFE80CF0070802024FF00040A0F5C5
:105A5000800010BD0846420018BFD2F1807288BF96
:105A600000F0004010BDFF2141EAD050C005704752
:105A700090EA010F48BF81F000413FF5F6AC421AB1
:105A800004D882F00042A0EB020011444FEAD05249
:105A9000A2EBD1534FF07F4C1CEA410F18BF9CEA98
:105AA000026F4AD04FF0004C4CEA00204CEA012132
:105AB00021FA03FCB0EB0C0C0FD412F0FE0F36D021
:105AC0005FEA4C001DD5001240EBC25038BF704752
:105AD0001CF03F0F18BF70470BE05FEA1C20A2F1DB
