:020000040800F2
:1000000018070020E9010008A5220008AD2000081B
:10001000A1220008ED040008992400080000000057
:100020000000000000000000000000005523000850
:10003000A506000800000000152300080924000898
:10004000030200080302000803020008030200087C
:10005000030200080302000803020008030200086C
:100060000302000803020008030200084506000816
:10007000030200080302000803020008030200084C
:100080000302000803020008030200080000000049
:100090000000000000000000000000000302000853
:1000A000030200080302000803020008030200081C
:1000B000030200080302000803020008030200080C
:1000C00003020008030200080302000803020008FC
:1000D00003020008030200080302000803020008EC
:1000E00003020008030200080302000800000000E9
:1000F0000000000000000000000000000000000000
:1001000000000000000000000000000000000000EF
:1001100000000000000000000302000803020008C5
:1001200000F002F800F050F814A696E8000CB24473
:10013000B344DA4501D100F047F8BAE80F000FA642
:1001400096E83000A5EB040504EB0607AAEB0704CC
:10015000A7F101074FEA15154FEA3414A4F1010481
:10016000AC4201D300F030F813F0010F18BFFB1AB6
:1001700043F0010300F001F8DBE71847D833000033
:10018000F8330000103A24BF78C878C1FAD8520773
:1001900024BF30C830C144BF04680C607047000001
:1001A000704700000023002400250026103A28BFD5
:1001B00078C1FBD8520728BF30C148BF0B607047D9
:1001C0001FB51FBD10B510BD00F058F81146FFF760
:1001D000F7FF02F0D3F900F076F803B4FFF7F2FF6F
:1001E00003BC00F07DF8000009488047094800473B
:1001F000FEE7FEE7FEE7FEE7FEE7FEE7FEE7FEE7D7
:10020000FEE7FEE704480549054A064B7047000033
:10021000952400082101000818010020180700207B
:1002200018030020180300204FF0000200B5134609
:1002300094469646203922BFA0E80C50A0E80C5006
:10024000B1F12001BFF4F7AF090728BFA0E80C50B7
:1002500048BF0CC05DF804EB890028BF40F8042BB0
:1002600008BF704748BF20F8022B11F0804F18BF1D
:1002700000F8012B7047704770477047754600F0D3
:100280002BF8AE4605006946534620F00700854628
:1002900018B020B5FFF7B6FFBDE820404FF00006CC
:1002A0004FF000074FF000084FF0000BAC46ACE8F1
:1002B000C009ACE8C009ACE8C009ACE8C00921F04D
:1002C00007018D46704710B50446AFF30080204605
:1002D000BDE81040FFF781BF0048704710000020C4
:1002E00001491820ABBEFEE726000200704700005F
:1002F00080B584B002900020019002980068806868
:10030000C00770B3FFE702980168886820F0010019
:10031000886001F0B3F80190FFE7029800688068F8
:10032000C007E8B1FFE701F0A9F80199401A0328D6
:1003300015D3FFE7029800688068C00770B1FFE737
:100340000299886A40F0100088620299C86A40F0F9
:100350000100C86201208DF80F0006E0FFE7DCE72E
:10036000FFE700208DF80F00FFE79DF80F0004B0B5
:1003700080BD000080B582B001900198406A009075
:100380000098806A10F0500F28D1FFE70099886A22
:1003900040F40070886200980068806800F4602073
:1003A000B0F5602F16D1FFE70098007B90B9FFE70A
:1003B0000099886A20F4807088620098806AC0047E
:1003C000002806D4FFE70099886A40F0010088629F
:1003D000FFE7FFE7009800F049FA05E00098006A9F
:1003E000016B01988847FFE702B080BD80B582B0FD
:1003F00001900198406A00900099886A40F040009E
:1004000088620099C86A40F00400C862009800F051
:1004100035FA02B080BD000080B582B0019001982D
:10042000406A0090009800F025FA02B080BD0000FC
:1004300080B584B00290002001900090029800687E
:100440008068C007002849D1FFE7029801688868E2
:1004500040F00100886040F20000C2F20000006835
:100460004DF68361C4F21B31A0FB0110800C00909B
:10047000FFE7009820B1FFE7009801380090F8E707
:1004800000F0FCFF0190FFE7029800688068C00759
:1004900018BBFFE700F0F2FF0199401A03281BD3B5
:1004A000FFE7029800688068C007A0B9FFE70299DB
:1004B000886A40F0100088620299C86A40F0010022
:1004C000C862FFE70299002081F82400FFE70120BD
:1004D0008DF80F0006E0FFE7D6E7FFE700208DF874
:1004E0000F00FFE79DF80F0004B080BDFFE7FEE7B7
:1004F00080B582B000208DF80700282002F02EF889
:1005000040F60000C4F20100202100F087FFA8B9E6
:10051000FFE7502002F022F840F60000C4F201008C
:10052000202100F07BFF20B1FFE701208DF80700BC
:1005300003E0FF208DF80700FFE7FFE7FFE740F645
:100540000000C4F20100202100F068FF08B1FFE7BD
:10055000F5E79DF8070002B080BD000080B582B0CD
:1005600000208DF80600FFE79DF80600072843DC11
:10057000FFE7FFE740F60000C4F20100202100F091
:100580004DFF08B9FFE7F5E7282001F0E7FF40F647
:100590000000C4F20100202100F040FF68B9FFE72D
:1005A0009DF80600C0F10701012000FA01F19DF855
:1005B000070088438DF807000CE09DF80600C0F1A5
:1005C0000701012000FA01F19DF8070008438DF8AA
:1005D0000700FFE7FFE740F60000C4F2010020211A
:1005E00000F01CFF08B1FFE7F5E7FFE79DF8060004
:1005F00001308DF80600B7E79DF8070002B080BD16
:1006000080B582B040F60000C4F2010000902021C5
:10061000019101F0B7FE00980199002200F016FF49
:100620004FF4966001F09AFF00980199012200F0C2
:100630000DFF1E2001F092FF0098019901F08CFE41
:1006400002B080BD80B540F2C400C2F2000000F0EC
:1006500031FB80BD84B00390029101920093039816
:10066000C16B026C012090404860009803990968B2
:10067000486003984068102809D1FFE70198039962
:1006800009688860029803990968C86008E00298C0
:10069000039909688860019803990968C860FFE7B1
:1006A00004B070477047000081B0EFF3108072B65D
:1006B0000090FFE7FEE7000085B003900291002064
:1006C0008DF807000090FFE7039890F824000128B8
:1006D00004D1FFE702208DF81300C3E00399012045
:1006E00081F82400FFE7FFE702984068062812D847
:1006F000FFE703980068406B029A1168526802EBAA
:100700008202053A1F23934098439140084303997E
:100710000968486329E0029840680C2812D8FFE76E
:1007200003980068006B029A1168526802EB82021B
:10073000233A1F2393409843914008430399096843
:10074000086311E003980068C06A029A1168526851
:1007500002EB8202413A1F239340984391400843A1
:1007600003990968C862FFE7FFE7029800680A2852
:1007700012D3FFE703980068C06802990A68896885
:1007800002EB42021E3A07239340984391400843EC
:1007900003990968C86010E003980068006902992D
:1007A0000A68896802EB420207239340984391400C
:1007B0000843039909680861FFE702980068102858
:1007C00005D0FFE702980068112840D1FFE70398A1
:1007D000006842F20041C4F2010188422DD1FFE7D6
:1007E0000398006880680002002825D4FFE703987A
:1007F0000168886840F4000088600298006810284A
:1008000019D1FFE740F20000C2F2000000684DF687
:100810008361C4F21B31A0FB0110800C00EB80004F
:1008200040000090FFE7009820B1FFE700980138F2
:100830000090F8E7FFE7FFE708E00399886A40F0D7
:100840002000886201208DF80700FFE7FFE7FFE73F
:100850000399002081F82400FFE79DF807008DF838
:100860001300FFE79DF8130005B0704781B00090BA
:1008700001B0704781B0009001B0704781B0009026
:1008800001B0704780B588B0069000208DF8170041
:10089000049003900290069820B9FFE701208DF89C
:1008A0001F00F4E00698806830B1FFE70698007DED
:1008B00008B1FFE7FFE7FFE70698806A50B9FFE756
:1008C00006990020C862069981F82400069800F075
:1008D000E3F8FFE70698FFF70BFD8DF81700069881
:1008E000806AC006002800F1C480FFE79DF8170069
:1008F000002840F0BE80FFE70698806A40F00200C2
:1009000020F488500699886206994868CA6910439D
:10091000097B40EA410103980843039006988168E7
:100920000120B1F5807F019008D0FFE7069880682C
:100930000138B0FA80F040090190FFE7019904986E
:10094000CA0740F48071002A18BF08460490069830
:10095000007D01281ED1FFE70698007B70B9FFE7F4
:10096000069881694EF20000CFF6FF7000EB41302F
:100970000499084340F4006004900AE00699886AEC
:1009800040F0200088620699C86A40F00100C86201
:10099000FFE7FFE706980068406820F46940049983
:1009A00008430699096848600698006880684FF215
:1009B000FD71CFF6E1710840039908430699096873
:1009C0008860069881680120B1F5807F009008D08A
:1009D000FFE7069880680138B0FA80F0400900907F
:1009E000FFE7009800F00100002818BF4FF4807066
:1009F000B0F5807F09D1FFE7069801690020CFF6A6
:100A0000F07000EB01500290FFE706980068C06AA2
:100A100020F470000299084306990968C862069894
:100A20000068806840F6FE61CFF61F7108400399A8
:100A300088420CD1FFE706990020C8620698806AB8
:100A400040F0010020F002000699886210E006984C
:100A5000806A40F0100020F0020006998862069932
:100A6000C86A40F00100C86201208DF81700FFE756
:100A700008E00699886A40F01000886201208DF82D
:100A80001700FFE79DF817008DF81F00FFE79DF89E
:100A90001F0008B080BD000080B588B0079000201E
:100AA00006900590049003900798006842F2004178
:100AB000C4F20101884252D1FFE7FFE741F218007A
:100AC000C4F20200016841F400710160006800F4A2
:100AD000007002900298FFE7FFE741F21800C4F2AD
:100AE0000200016841F004010160006800F00400A8
:100AF00001900198FFE71E2003900320049040F628
:100B00000000C4F2010003A900F0F8FA40F2C400AA
:100B1000C2F2000000900821C4F20201016000212D
:100B2000416081608022C2604FF4807202614FF4A4
:100B30000062426120228261C16100F0FFF918B1B8
:100B4000FFE7FFF7B1FDFFE7FFE7079840F2C401B9
:100B5000C2F20001016207984862FFE7FFE708B0B0
:100B600080BD000080B586B0049003910292002001
:100B70008DF80700FFE7049890F82400012804D1BD
:100B8000FFE702208DF817008FE00499012081F81B
:100B90002400FFE7FFE70498FFF74AFC8DF8070001
:100BA0009DF80700002874D1FFE70498806A40F49C
:100BB000807040F601618843049988620499886ACC
:100BC00020F480108862049800684068400500287E
:100BD00009D5FFE70498806A40F4805020F4005063
:100BE00004998862FFE70498806AC004002806D54B
:100BF000FFE70499C86A20F00600C86203E0049980
:100C00000020C862FFE7FFE70499002081F8240074
:100C1000FFE70498016A40F27530C0F60000886270
:100C20000498016A40F21940C0F60000C8620498B6
:100C3000016A40F2ED30C0F60000086304980168D4
:100C40006FF00200086004980168886840F48070C2
:100C5000886004980168006A4C31039A029B00F096
:100C6000C5F904980068806800F46020B0F5602F32
:100C700007D1FFE704980168886840F4A000886005
:100C800006E004980168886840F480108860FFE7F7
:100C900006E0FFE70499002081F82400FFE7FFE762
:100CA0009DF807008DF81700FFE79DF8170006B0C4
:100CB00080BD000080B58EB00D900D98C06B0068AF
:100CC0000C900D98006800680B900C980D99096CB9
:100CD000C8404007002875D5FFE79DF82C00400765
:100CE00000286FD5FFE70D9800680068800600288F
:100CF00007D4FFE70D980168086820F00400086039
:100D0000FFE70D9800680821C4F20201884203D170
:100D1000FFE704200A9047E00D9800681C21C4F208
:100D20000201884203D1FFE74020099039E00D9885
:100D300000683021C4F20201884204D1FFE74FF479
:100D4000806008902AE00D9800684421C4F20201F6
:100D5000884204D1FFE74FF4804007901BE00D98D4
:100D600000685821C4F20201884204D1FFE74FF421
:100D7000802006900CE00D9801686C22C4F20202FB
:100D80004FF08060914208BF4FF480000690FFE76B
:100D900006980790FFE707980890FFE708980990E2
:100DA000FFE709980A90FFE70A980421C4F20201BC
:100DB00008600D98C06A20B1FFE70D98C16A8847A6
:100DC000FFE7B8E00C980D99096CC840800700282F
:100DD00040F18080FFE79DF82C008007002879D53E
:100DE000FFE70D9800680068800600280BD4FFE735
:100DF0000D980168086820F00A0008600D9901202C
:100E000081F82100FFE70D9800680821C4F2020173
:100E1000884203D1FFE70220059047E00D98006863
:100E20001C21C4F20201884203D1FFE72020049074
:100E300039E00D9800683021C4F20201884204D1E3
:100E4000FFE74FF4007003902AE00D9800684421FA
:100E5000C4F20201884204D1FFE74FF4005002902F
:100E60001BE00D9800685821C4F20201884204D1A9
:100E7000FFE74FF4003001900CE00D9801686C2200
:100E8000C4F202024FF00070914208BF4FF400100C
:100E90000190FFE701980290FFE702980390FFE7B7
:100EA00003980490FFE704980590FFE70598042154
:100EB000C4F202010860FFE70D99002081F82000CC
:100EC000FFE70D98806A20B1FFE70D98816A884797
:100ED000FFE72FE00C980D99096CC8400007002827
:100EE00027D5FFE79DF82C000007002821D5FFE754
:100EF0000D980168086820F00E0008600D98C26B1C
:100F0000016C012000FA01F151600D9988630D997F
:100F100081F82100FFE70D99002081F82000FFE70C
:100F20000D98006B20B1FFE70D98016B8847FFE734
:100F3000FFE7FFE7FFE70EB080BD000083B0019040
:100F400000200090019820B9FFE701208DF80B00E8
:100F500047E0019908684FF6F872CBF6FD7210442D
:100F60004CF6CD42CCF6CC42A0FB02026FF003005F
:100F700000EA9200086401990020C4F20200C863EC
:100F80000199022081F82100019800680068009012
:100F9000009843F6F0718843009001994868D1F8B1
:100FA00008C0CB680A6940EA0C00184310434A693C
:100FB00010438A691043C9690143009808430090AF
:100FC0000098019909680860019900208863019AD6
:100FD000012182F82110019981F820008DF80B0081
:100FE000FFE79DF80B0003B07047000080B586B0A6
:100FF000049003910292019300208DF80300FFE713
:10100000049890F82000012804D1FFE702208DF811
:1010100017004CE00499012081F82000FFE7FFE76A
:10102000049890F82100012832D1FFE704990220AA
:1010300081F82100049900208863049801680868F9
:1010400020F00100086004980399029A019BFFF7C1
:1010500001FB0498C06A38B1FFE70498016808688A
:1010600040F00E0008600CE004980168086820F069
:101070000400086004980168086840F00A000860ED
:10108000FFE704980168086840F00100086009E083
:10109000FFE70499002081F82000FFE702208DF887
:1010A0000300FFE79DF803008DF81700FFE79DF8A8
:1010B000170006B080BD000080B584B0039000F03A
:1010C000DDF90290039801900198013048B1FFE7E3
:1010D00040F20400C2F20000017801980844019037
:1010E000FFE7FFE700F0CAF90299401A0199884228
:1010F00001D2FFE7F6E704B080BD000090B00F908A
:101100000E9100200D900990FFE70E9800680D9950
:10111000C840002800F07F81FFE70D99012088403A
:101120000C900E9800680C9908400B900B980C9945
:10113000884240F06C81FFE70E98406805900028D7
:1011400051D0FFE7059801283AD0FFE7059802281B
:101150003FD0FFE7059803285FD0FFE705981128E7
:1011600032D0FFE70598122838D0FFE70598002114
:10117000C1F21101884236D0FFE705980021C1F283
:10118000120188422FD0FFE705980021C1F221010A
:10119000884228D0FFE705980021C1F22201884249
:1011A00021D0FFE705980021C1F2310188421AD011
:1011B000FFE705980021C1F23201884213D02FE0E9
:1011C0000E98C06809902CE00E98C0680430099011
:1011D00027E00E98C0680830099022E00E98C06899
:1011E0000C3009901DE00E98806818B9FFE70420C4
:1011F000099011E00E988068012806D1FFE70820C9
:1012000009900C980F99086105E0082009900C9846
:101210000F994861FFE7FFE703E00020099000E035
:10122000FFE70B98FF2803D8FFE70F98049003E02F
:101230000F9804300490FFE7049808900B98FF285B
:1012400004D8FFE70D988000039006E00D996FF039
:101250001F0000EB81000390FFE7039807900898B8
:101260000068079A0F2191408843099991400843EB
:10127000089908600E98C079C006002840F1C68021
:10128000FFE7FFE741F21800C4F20200016841F0F5
:1012900001010160006800F0010006900698FFE778
:1012A0000D9820F003000821C4F2010140580A9073
:1012B0000D9800F0030081000F2000FA01F10A9858
:1012C00088430A900F9840F60001C4F20101884259
:1012D00003D1FFE70020029026E00F9840F600417E
:1012E000C4F20101884203D1FFE70120019018E018
:1012F0000F9841F20001C4F20101884203D1FFE7D7
:10130000022000900AE00F9941F20042C4F201026B
:101310000420914208BF03200090FFE7009801904D
:10132000FFE701980290FFE702980D9901F0030191
:10133000890000FA01F10A9808430A900A980D9969
:1013400021F003010822C4F2010288500E9880792E
:10135000C006002809D5FFE70B9A40F20841C4F205
:10136000010108681043086008E00B9A40F2084148
:10137000C4F20101086890430860FFE70E98807985
:101380008006002809D5FFE70B9A40F20C41C4F211
:10139000010108681043086008E00B9A40F20C4114
:1013A000C4F20101086890430860FFE70E98807955
:1013B0008007002809D5FFE70B9A40F20441C4F2E8
:1013C000010108681043086008E00B9A40F20441EC
:1013D000C4F20101086890430860FFE70E98807925
:1013E000C00748B1FFE70B9A40F20041C4F2010187
:1013F00008681043086008E00B9A40F20041C4F20C
:101400000101086890430860FFE7FFE7FFE70D98D8
:1014100001300D9079E610B07047000082B0019065
:10142000ADF8021001988068BDF80210084204D09F
:10143000FFE701208DF8010003E000208DF8010096
:10144000FFE79DF8010002B07047000082B00190F4
:10145000ADF802108DF801209DF8010028B1FFE7DA
:10146000BDF802000199086105E0BDF80200000422
:1014700001990861FFE702B07047000040F21010C8
:10148000C2F200000068704740F20400C2F200009F
:10149000027840F21011C2F200010868104408609E
:1014A0007047000080B582B0032000F097F800205C
:1014B000019000F005F800F03BF8019802B080BD03
:1014C00080B582B0009040F20000C2F200000068D7
:1014D00040F20401C2F200010A784FF47A71B1FBC4
:1014E000F2F1B0FBF1F000F0D9FD20B1FFE70120EF
:1014F0008DF8070018E000980F280DD8FFE7009935
:101500004FF0FF30002200F04FF8009840F2080141
:10151000C2F20001086003E001208DF8070003E03B
:1015200000208DF80700FFE79DF8070002B080BD9E
:1015300083B0FFE741F21800C4F20200016841F0F5
:1015400001010160006800F0010002900298FFE7CD
:10155000FFE741F21C00C4F20200016841F0805133
:101560000160006800F0805001900198FFE7FFE7FC
:101570000421C4F2010108680090009820F0E060A6
:101580000090009840F00070009000980860FFE71D
:1015900003B0704780B582B08DF807009DF9070051
:1015A00000F07CFF02B080BD80B586B08DF81700DA
:1015B000049103920020029000F088FF02909DF9B0
:1015C0001700019002980499039A00F06DFE0146FD
:1015D000019800F083FF06B080BD000080B582B0A6
:1015E0000190019800F09CFF02B080BD80B586B0EC
:1015F000049000200390029004980078C00700280F
:1016000000F0AC80FFE700208DF8070041F21C00DD
:10161000C4F202000068C000002813D4FFE7FFE70F
:1016200041F21C00C4F20200016841F080510160E7
:10163000006800F0805000900098FFE701208DF8CE
:101640000700FFE747F20000C4F200000068C00591
:10165000002822D4FFE747F20001C4F20001086825
:1016600040F480700860FFF709FF0390FFE747F23E
:101670000000C4F200000068C00500280CD4FFE799
:10168000FFF7FCFE0399401A652804D3FFE7032007
:101690008DF8170078E0EAE7FFE741F22000C4F296
:1016A0000200006800F4407002900298E0B3FFE787
:1016B00002980499496801F44071884234D0FFE7E8
:1016C00041F22001C4F20201086820F44070029047
:1016D00040F24042C4F2422201201060002010601B
:1016E000029808609DF80800C007E0B1FFE7FFF727
:1016F000C5FE0390FFE741F22000C4F2020000683B
:10170000800700280ED4FFE7FFF7B8FE0399401AC0
:1017100041F28931884204D3FFE703208DF8170096
:1017200032E0E8E7FFE7FFE741F22001C4F20201FF
:10173000086820F44070049A5268104308609DF8CD
:101740000700012809D1FFE741F21C01C4F20201A0
:10175000086820F080500860FFE7FFE704980078F1
:10176000800700280CD5FFE741F20401C4F2020112
:10177000086820F44040049A926810430860FFE72C
:1017800000208DF81700FFE79DF8170006B080BD18
:1017900080B584B002900191029820B9FFE7012042
:1017A0008DF80F00D9E002980078800700282AD52C
:1017B000FFE7029800784007002809D5FFE741F2CB
:1017C0000401C4F20201086840F4E0600860FFE729
:1017D000029800780007002809D5FFE741F20401CC
:1017E000C4F20201086840F460500860FFE741F26B
:1017F0000401C4F20201086820F0F000029A926825
:1018000010430860FFE702980078C007002860D006
:10181000FFE70298406801280ED1FFE741F200007F
:10182000C4F2020000688003002804D4FFE701200E
:101830008DF80F0091E021E00298406802280ED157
:10184000FFE741F20000C4F20200006880010028B6
:1018500004D4FFE701208DF80F007EE00DE041F297
:101860000000C4F2020000688007002804D4FFE7EB
:1018700001208DF80F0070E0FFE7FFE741F204015F
:10188000C4F20201086820F00300029A5268104373
:101890000860FFF7F3FD0090FFE741F20400C4F297
:1018A0000200006800F00C0002994968B0EB810F5B
:1018B0000ED0FFE7FFF7E2FD0099401A41F28931AF
:1018C000884204D3FFE703208DF80F0045E0E4E7EA
:1018D000FFE702980078400700280CD5FFE741F2A7
:1018E0000401C4F20201086820F4E060029AD268A0
:1018F00010430860FFE702980078000700280DD524
:10190000FFE741F20401C4F20201086820F46050CC
:10191000029A126940EAC2000860FFE700F022F86C
:1019200041F20401C4F202010968C9B20A0943F292
:101930002251C0F60001895CC84040F20001C2F2A9
:101940000001086040F20800C2F200000068FFF7E2
:10195000B7FD00208DF80F00FFE79DF80F0004B0E1
:1019600080BD000086B00020059004900390029096
:10197000019041F20400C4F202000068059005984D
:1019800000F00C000146009100283FD0FFE70098CE
:10199000042804D0FFE70098082806D037E041F279
:1019A0000020C0F27A00019037E00598C0F383412F
:1019B00043F23250C0F60000405C02909DF81600E1
:1019C000C007C0B1FFE741F22C00C4F2020000687A
:1019D00000F00F0143F24250C0F60000405C04905A
:1019E000029841F20021C0F27A0148430499B0FB09
:1019F000F1F0039007E0029840F60011C0F23D01BB
:101A000048430390FFE70398019006E0FFE741F2A7
:101A10000020C0F27A000190FFE7019806B07047FD
:101A200080B586B00490049820B9FFE701208DF8B6
:101A300017002EE304980078C007002800F0AE805D
:101A4000FFE741F20400C4F20200006800F00C005D
:101A5000042813D0FFE741F20400C4F2020000683A
:101A600000F00C0008281BD1FFE741F20400C4F28B
:101A700002000068C003002812D5FFE741F2000011
:101A8000C4F2020000688003002808D5FFE704982C
:101A9000406820B9FFE701208DF81700F9E27CE0EB
:101AA000FFE704984068B0F5803F09D1FFE741F2B5
:101AB0000001C4F20201086840F48030086032E09E
:101AC0000498406868B9FFE741F20001C4F20201DE
:101AD000086820F480300860086820F480200860DE
:101AE00020E004984068B0F5A02F0DD1FFE741F247
:101AF0000001C4F20201086840F480200860086810
:101B000040F4803008600CE041F20001C4F20201B0
:101B1000086820F480300860086820F4802008609D
:101B2000FFE7FFE7FFE7FFE704984068D0B1FFE772
:101B3000FFF7A4FC0390FFE741F20000C4F20200AB
:101B40000068800300280CD4FFE7FFF797FC039997
:101B5000401A652804D3FFE703208DF8170098E2A8
:101B6000EAE719E0FFF78AFC0390FFE741F2000083
:101B7000C4F202000068800300280CD5FFE7FFF7DD
:101B80007DFC0399401A652804D3FFE703208DF8F4
:101B900017007EE2EAE7FFE7FFE7FFE70498007837
:101BA0008007002840F18D80FFE741F20400C4F275
:101BB0000200006810F00C0F13D0FFE741F20400A0
:101BC000C4F20200006800F00C00082829D1FFE7E9
:101BD00041F20400C4F202000068C003002820D4CF
:101BE000FFE741F20000C4F202000068800700280D
:101BF00009D5FFE704980069012804D0FFE7012018
:101C00008DF8170045E241F20001C4F202010868B4
:101C100020F0F800049A526940EAC2000860FFE729
:101C20004EE00498006958B3FFE70021C4F2422156
:101C300001200860FFF722FC0390FFE741F200005B
:101C4000C4F202000068800700280CD4FFE7FFF709
:101C500015FC0399401A032804D3FFE703208DF8ED
:101C6000170016E2EAE741F20001C4F20201086837
:101C700020F0F800049A526940EAC20008601EE0B1
:101C80000021C4F2422100200860FFF7F7FB039017
:101C9000FFE741F20000C4F202000068800700285C
:101CA0000CD5FFE7FFF7EAFB0399401A032804D39A
:101CB000FFE703208DF81700EBE1EAE7FFE7FFE716
:101CC000FFE7049800780007002848D5FFE704984C
:101CD000806918B3FFE740F28041C4F2422101203D
:101CE0000860FFF7CBFB0390FFE741F22400C4F24A
:101CF00002000068800700280CD4FFE7FFF7BEFB56
:101D00000399401A032804D3FFE703208DF8170036
:101D1000BFE1EAE7012000F0FFFA1FE040F2804156
:101D2000C4F2422100200860FFF7A8FB0390FFE700
:101D300041F22400C4F202000068800700280CD59C
:101D4000FFE7FFF79BFB0399401A032804D3FFE743
:101D500003208DF817009CE1EAE7FFE7FFE704980E
:101D600000784007002840F1D880FFE700208DF878
:101D7000070041F21C00C4F202000068C000002805
:101D800013D4FFE7FFE741F21C00C4F20200016830
:101D900041F080510160006800F080500090009890
:101DA000FFE701208DF80700FFE747F20000C4F2CB
:101DB00000000068C005002822D4FFE747F20001B8
:101DC000C4F20001086840F480700860FFF756FB19
:101DD0000390FFE747F20000C4F200000068C0056E
:101DE00000280CD4FFE7FFF749FB0399401A652848
:101DF00004D3FFE703208DF817004AE1EAE7FFE785
:101E0000FFE70498C068012809D1FFE741F22001EB
:101E1000C4F20201086840F00100086031E0049853
:101E2000C06868B9FFE741F22001C4F20201086806
:101E300020F001000860086820F0040008601FE03E
:101E40000498C06805280DD1FFE741F22001C4F2D3
:101E50000201086840F004000860086840F00100D2
:101E600008600CE041F22001C4F20201086820F091
:101E700001000860086820F004000860FFE7FFE741
:101E8000FFE7FFE70498C068E0B1FFE7FFF7F6FA65
:101E90000390FFE741F22000C4F2020000688007CF
:101EA00000280ED4FFE7FFF7E9FA0399401A41F240
:101EB0008931884204D3FFE703208DF81700E8E05A
:101EC000E8E71BE0FFF7DAFA0390FFE741F22000B2
:101ED000C4F202000068800700280ED5FFE7FFF774
:101EE000CDFA0399401A41F28931884204D3FFE7C1
:101EF00003208DF81700CCE0E8E7FFE79DF8070026
:101F0000012809D1FFE741F21C01C4F2020108686F
:101F100020F080500860FFE7FFE70498C0690028C0
:101F200000F0B380FFE741F20400C4F20200006851
:101F300000F00C00082800F08280FFE70498C069D8
:101F400002285CD1FFE76021C4F242210020086032
:101F5000FFF794FA0390FFE741F20000C4F2020099
:101F60000068800100280CD5FFE7FFF787FA039986
:101F7000401A032804D3FFE703208DF8170088E0F8
:101F8000EAE70498006AB0F5803F0CD1FFE741F220
:101F90002C01C4F20201086820F00F00049A926834
:101FA00010430860FFE741F20401C4F2020108682F
:101FB00020F47410049B1A6A5B6A1A431043086089
:101FC0006021C4F2422101200860FFF757FA039014
:101FD000FFE741F20000C4F202000068800100281F
:101FE0000CD4FFE7FFF74AFA0399401A032804D3F9
:101FF000FFE703208DF817004BE0EAE71EE06021C1
:10200000C4F2422100200860FFF738FA0390FFE78E
:1020100041F20000C4F202000068800100280CD5E3
:10202000FFE7FFF72BFA0399401A032804D3FFE7D1
:1020300003208DF817002CE0EAE7FFE724E004987E
:10204000C069012804D1FFE701208DF8170020E0C6
:1020500041F20400C4F2020000680290029800F409
:1020600080300499096A884208D1FFE7029800F499
:1020700070100499496A884204D0FFE701208DF866
:10208000170006E0FFE7FFE7FFE700208DF81700E5
:10209000FFE79DF8170006B080BD000080B582B054
:1020A0000190019800F086F902B080BDFFE7FEE7DD
:1020B00080B584B0002103910291019140F2940017
:1020C000C2F20000009042F20042C4F2010202603B
:1020D0004FF4807282600122027301754FF4602216
:1020E000C261416004210161FEF7CCFB18B1FFE73A
:1020F000FEF7DAFAFFE70120019002900520039035
:1021000040F29400C2F2000001A9FEF7D5FA18B11E
:10211000FFE7FEF7C9FAFFE702200190029040F2C4
:102120009400C2F2000001A9FEF7C6FA18B1FFE759
:10213000FEF7BAFAFFE703200190029040F2940004
:10214000C2F2000001A9FEF7B7FA18B1FFE7FEF7E7
:10215000ABFAFFE704200190029040F29400C2F233
:10216000000001A9FEF7A8FA18B1FFE7FEF79CFAF4
:10217000FFE704B080BD000080B582B0FFE741F208
:102180001400C4F20200016841F00101016000681E
:1021900000F0010001900198FFE70B200090002261
:1021A0001146FFF701FA0098FFF7F4F902B080BD7D
:1021B00080B590B000200F900E900D900C90FFE72E
:1021C00041F21800C4F20200016841F01001016000
:1021D000006800F010000B900B98FFE7FFE741F25A
:1021E0001800C4F20200016841F02001016000689B
:1021F00000F020000A900A98FFE7FFE741F218007C
:10220000C4F20200016841F004010160006800F0BE
:10221000040009900998FFE7FFE741F21800C4F2B3
:102220000200016841F008010160006800F0080048
:1022300008900898FFE740F60000C4F20100029001
:102240002021019101220492FFF700F940F600409D
:10225000C4F2010006904FF4E05103910022059270
:10226000FFF7F4F8019B0298049A05990C930D92DC
:102270000E9103210F910CA90791FEF73FFFDDF8A6
:102280000CC0049B059A06980799CDF830C00D93B1
:102290000E9202220F92FEF731FF10B080BD0000B7
:1022A000FFE7FEE7FFE7FEE788B00790069105929B
:1022B000079800F0070004900498C0F10700052873
:1022C00003D3FFE70420019004E00498C0F1070065
:1022D0000190FFE70198039004980430062803D882
:1022E000FFE70020009003E0049803380090FFE728
:1022F0000098029006980399012202FA01F101392F
:102300000840029B984005999A40013A11400843C1
:1023100008B070477047000082B00190019840F209
:102320000001C2F200010968C90844F6D352C1F2A3
:102330006202A1FB0221890948430090FFE700BF28
:10234000FFE70098411E00910028F8D1FFE702B096
:10235000704700007047000080B586B00590ADF86A
:10236000121000200390029001900090BDF812100E
:1023700000910190029005986946FEF7BFFE06B0F5
:1023800080BD000080B586B00590ADF81210002029
:102390000390029001900090BDF81200009001207F
:1023A00001900320039005986946FEF7A7FE06B04A
:1023B00080BD000080B582B0009000980138B0F177
:1023C000807F03D3FFE70120019019E000980138D6
:1023D0004EF21401CEF2000108604FF0FF300F21E1
:1023E00000F07CF84EF21801CEF2000100200860E7
:1023F0004EF21002CEF20002072111600190FFE7B9
:10240000019802B080BD000080B5FFF73DF880BDA7
:1024100080B594B00AA800902821FDF705FF009828
:10242000002101910991089107910691059104916C
:102430000391029102220A9201230E9310230F931B
:10244000119212914FF480111391FFF7E9FA18B12C
:10245000FFE7FEF729F9FFE70F200590022006901D
:10246000002107910891099105A8FFF791F918B18A
:10247000FFE7FEF719F9FFE7022002900020049021
:1024800002A8FFF7B3F818B1FFE7FEF70DF9FFE771
:1024900014B080BD70470000FFE7FEE781B08DF803
:1024A00003009DF9030000280ED4FFE79DF90310F7
:1024B00001F01F02012090404A094EF20011CEF2B5
:1024C000000141F82200FFE701B070474EF60C50C2
:1024D000CEF200000068C0F30220704782B08DF891
:1024E000070000919DF9070000280AD4FFE7009833
:1024F00000019DF907104EF20042CEF2000288540E
:102500000BE0009800019DF8071001F00F014EF656
:102510001452CEF200028854FFE702B07047000068
:1025200083B00290029800F0070000904EF60C5124
:10253000CEF200010868019001984FF6FF021040AA
:1025400001900198009A40EA02200022C0F2FA525B
:10255000104301900198086003B0704782B0019069
:10256000019840000090FFE70098411E009110B1D3
:10257000FFE700BFF8E702B07047000080B58CB0FD
:1025800000200A90FEF78EFFFFF742FFFFF710FED4
:10259000FFF7F2FDFFF78CFD40F29400C2F200005D
:1025A00040F28401C2F200010422FEF7DBFAFFE7E9
:1025B00040F28401C2F20001089108684A68896803
:1025C0001044084400F0C4FB002207920023C4F228
:1025D000080300F027FA00F0E7F9014640F208107E
:1025E000C2F200000160006800F03CFD079A002381
:1025F000C4F2590300F038FC079A4FF60063C4F2A6
:10260000AF0300F00FFA00F0CFF90146089840F24E
:102610001412C2F2000209921160C06800F044FE78
:102620000146099840F20C12C2F2000211600068E3
:102630000021C4F2962100F0F0FD50B9FFE740F60A
:102640000040C4F201004FF480610122FEF7FEFE5B
:1026500016E040F21410C2F2000000680021C4F23B
:102660000C2100F0C5FD50B9FFE740F60040C4F270
:1026700001004FF480610022FEF7E8FEFFE7FFE76C
:1026800040F20C10C2F2000000680021C4F2F01108
:1026900000F0B5FD50B9FFE740F60040C4F201007C
:1026A0004FF400610122FEF7D1FE09E040F6004040
:1026B000C4F201004FF400610022FEF7C7FEFFE7FD
:1026C0006420FEF7F9FC40F28401C2F2000105919A
:1026D00008684A6889681044084400F039FB002201
:1026E00004920023C4F2080300F09CF900F05CF9A6
:1026F000014640F20810C2F200000160006800F0DC
:10270000B1FC049A0023C4F2590300F0ADFB049A13
:102710004FF60063C4F2AF0300F084F900F044F90F
:102720000146059840F21412C2F2000206921160AE
:10273000C06800F0B9FD0146069840F20C12C2F2E2
:102740000002116000680021C4F2962100F065FDCE
:1027500050B9FFE740F60040C4F201004FF4806139
:102760000122FEF773FE16E040F21410C2F20000E0
:1027700000680021C4F20C2100F03AFD50B9FFE7D7
:1027800040F60040C4F201004FF480610022FEF7E1
:102790005DFEFFE7FFE740F20C10C2F200000068A8
:1027A0000021C4F2F01100F02AFD50B9FFE740F615
:1027B0000040C4F201004FF400610122FEF746FE22
:1027C00009E040F60040C4F201004FF4006100222D
:1027D000FEF73CFEFFE76420FEF76EFCEFF310808F
:1027E00072B60B90FDF70CFFFDF782FE014640F23A
:1027F0007400C2F2000001700078012824D1FFE7C4
:10280000FDF7ACFE40F27801C2F200010870FDF75E
:10281000A5FE40F27901C2F200010870FDF79EFEAC
:1028200040F27E01C2F200010870FDF797FE40F20F
:102830007F01C2F200010870FDF790FE40F27A01BC
:10284000C2F200010880FFE762B640F27400C2F2F3
:1028500000000078012840F0A280FFE740F27A00F3
:10286000C2F20000008840F27801C2F2000109784B
:1028700040F27902C2F200021278114440F27E0264
:10288000C2F200021278114440F27F02C2F200024A
:1028900012781144C9B2884240F08180FFE740F2CB
:1028A0007E00C2F200000390017840F27F00C2F285
:1028B0000000007840EA012140F27C00C2F20000F2
:1028C0000180008800F0F0FC00F0CCFB0022002327
:1028D000C4F2240300F0A6F800F066F8014603985D
:1028E00040F28002C2F20002116000780006002867
:1028F0000DD5FFE740F28000C2F2000002900168AF
:102900004FF0004000F098FD02990860FFE740F2A8
:102910007800C2F20000017840F27900C2F20000B3
:10292000007840EA012140F27600C2F20000018006
:10293000008800F0B9FC00F095FB00220192002312
:10294000C4F2240300F06EF800F02EF840F270019B
:10295000C2F20001086040F28000C2F2000000688C
:1029600000F080FB019A0023C4F2390300F024FC3C
:1029700050B9FFE740F60040C4F201004FF4805127
:102980000122FEF763FD09E040F60040C4F20100B9
:102990004FF480510022FEF759FDFFE7FFE74FF4A7
:1029A000FA60FEF789FB03E621F0004201F00043E4
:1029B000A2F16052B2F5801F28BFD2F17F6C0BD913
:1029C0005FEA001C43EAC20242EB507018BF704736
:1029D00028BF20F001007047B2F5801FBCBF184629
:1029E00070474FEA410C1CF5001F02D2084600F068
:1029F0001DBD70B500F0E2FA00000089FFF7F6BFD8
:102A00004FF00040A0F580007047491058BFC1F159
:102A100040415B1058BFC3F140438B42EFF300804D
:102A2000704700002DE9C04130B4DFF8A4C23CEA91
:102A3000111418BF3CEA131400F0ED801CEA1114C5
:102A400081EA030544EAD57418BF1CEA131500F0A7
:102A5000C880A4EB050404F17F7404F500344FF042
:102A6000004545EAC12145EAC32341EA505143EA02
:102A700052534FEAC0204FEAC222994208BF904207
:102A800000F09D804FEA13650FF24416765D4FEA21
:102A9000134506FB05F7C7F1807706FB07F74FEAFA
:102AA000D737A7FB03687642A7FB06CEC8F5803868
:102AB00038BFA8F1010807FB08E6A6FB028C4FF01F
:102AC000000EE6FB03CEDCF1000CCEF1004E38BF69
:102AD000AEF1010EA6FB0C584FF00007E6FB0E8787
:102AE000A1FB08C6A0FB07CE16EB0E064FF00005B3
:102AF00045F10005E1FB076515F1E04E7EBFA4F549
:102B000080345FEA46066D4116F1800745F1000505
:102B10004FEA172747EA05674FEA15254FEA066689
:102B2000A6F1DE46B6F1805F20D9384605EBC471C8
:102B300024F0010C01EB0C11BCF1FE6F02D8F0BCCB
:102B4000BDE8008124425CBF01F5801E9EEAC47F7F
:102B500002D4F0BCBDE80081244200F13980A1F12B
:102B6000C041F0BCBDE8004100F076BA4FEAD02089
:102B700040EA41504FEAD1214FEAD22242EA435281
:102B80004FEAD323A7FB028607FB036605FB026619
:102B90001EEA0E0F58BFA6EB0056B6EB00564FEAE2
:102BA000520E4EEAC37E18EB0E0E56EB530EBCD5FA
:102BB00018EB02085E417F1C55F10005B5E74FF4A4
:102BC00080154FF000074FF000064FF00008ACE70B
:102BD00001F1C04101F000414FF00000F0BCBDE840
:102BE00000810CEA131511EA0C1F00D00CE013EA67
:102BF0000C1F00F026804FF0000081EA030101F075
:102C00000041F0BCBDE80081F0BCBDE8004181EAB4
:102C1000030100F021BAF0BCBDE8004170B500F03E
:102C2000CDF900BF097EFC3E00F007B84FF0000070
:102C300081EA030101F00041704781EA030100F0DD
:102C40000BBAF0BCBDE8004122494FF000007047CC
:102C5000FFFDFBF9F7F5F4F2F0EEEDEBE9E8E6E461
:102C6000E3E1E0DEDDDBDAD8D7D5D4D3D1D0CFCDE8
:102C7000CCCBCAC8C7C6C5C4C2C1C0BFBEBDBCBB21
:102C8000BAB9B8B7B6B5B4B3B2B1B0AFAEADACAB1C
:102C9000AAA9A8A8A7A6A5A4A3A3A2A1A09F9F9EF6
:102CA0009D9C9C9B9A9999989797969595949393A8
:102CB000929191908F8F8E8E8D8C8C8B8B8A89893F
:102CC00088888787868585848483838282818180C2
:102CD0000000FF070000F87F51EA030C17D41CF531
:102CE000801F58BFBCF5801F00F10680994218BFB5
:102CF000704708BF9042704707D711F5801F58BF33
:102D000013F5801F19D499427047894270471CF50A
:102D1000801F08D5BCF5801FF7D58B4218BF7047C0
:102D200008BF824270474FF4001C1CEB410F38BFB4
:102D30001CEB430F01D28B42704770B500F03EF997
:102D4000922449004FF000514FF08053FFF75DBED1
:102D5000B0FA80F310FA03F10AD0C3F11D0303F5B2
:102D600080634FEA03524FEA415002EBD121704792
:102D70004FF000007047000051EA030C17D41CF517
:102D8000801F58BFBCF5801F00F10680994218BF14
:102D9000704708BF9042704707D711F5801F58BF92
:102DA00013F5801F19D499427047894270471CF56A
:102DB000801F08D5BCF5801FF7D58B4218BF704720
:102DC00008BF824270474FF4001C1CEB410F38BF14
:102DD0001CEB430F01D28B42704770B500F0EEF848
:102DE000922449004FF080514FF00053FFF70DBE81
:102DF00051EA030C17D41CF5801F58BFBCF5801F87
:102E000000F10680994218BF704708BF9042704792
:102E100007D711F5801F58BF13F5801F19D49942A9
:102E20007047894270471CF5801F08D5BCF5801F8C
:102E3000F7D58B4218BF704708BF824270474FF4E6
:102E4000001C1CEB410F38BF1CEB430F01D28B421F
:102E5000704770B500F0B2F8922449004FF000516D
:102E60004FF08053FFF7D1BD70B5DFF848C11CEAC1
:102E7000111E1EBF1CEA13159EEA0C0F95EA0C0FDB
:102E800000F06F8081EA03044EEAD47EAE4421EA6A
:102E90004C1123EA4C1341F4801143F48013AEF13A
:102EA0007F7EA1FB024CA0FB0365361955EB0C0598
:102EB000A1FB034C4CF10003A0FB021C16EB0C061B
:102EC000654153F10003094218BF46F0010613F4AF
:102ED000007F0BD14FEA03314FEA053041EA15512B
:102EE00040EA165034036FF003020AE04FEAC321B0
:102EF0004FEAC52041EA555140EA5650F4026FF0BE
:102F0000020202EB2E4201EB025585EACE710AD095
:102F10005FEA440C18BF24F0004450F1000041F176
:102F2000000120EAD47040F2FE7C624500D270BD00
:102F3000A84214BF4FF080444FF04044002E08BF19
:102F40000024BEF1806FA8BFA1F1C041BDE8704070
:102F500080F2828001F1C04101F000414FF0000099
:102F600070470CEA13159EEA0C0F18BF95EA0C0F78
:102F700006D081EA030E4FF000000EF0004170BD54
:102F800000F01CF88900013E00F007B800F009B815
:102F90004FEA430C5FEA5C5C08D081EA030100F071
:102FA0005BB84FEA410C5FEA5C5CF6D102494FF036
:102FB000000070470000FF070000F87F0EF1020ECE
:102FC0002EF0030E5EF8046B364205D4012A43EB63
:102FD000030515F5001F12D8012841EB010C1CF563
:102FE000001F0CD80ED14FEAD17C0CEB4C0C0CF12D
:102FF000020C15F5001F08BF4CEBD37C04E04FF02A
:10300000080C01E04FEAD37C0CEB4C0526FA05F6E0
:1030100006F00706B6F1040C06D20EEB860CBDE8EE
:1030200070404CF0010C6047DFE80CF0090B020225
:103030004FF00041A1F500214FF0000070BD19468E
:103040001046012851EB010418BFD4F5001484BFC9
:10305000002001F0004170BD0808A0F500114FEA02
:103060003101704743004FEAD30C4FEA3C0C434018
:103070001FBF40070CF1605113F0FE4F70471CF06A
:10308000006F03D10CF00041002070470CF00043AA
:1030900043EA507040EACC0010B500F081F900BF5F
:1030A000000000924FEA0001FFF7D6BF4FF0004149
:1030B000A1F500214FF000007047000090EA010FD9
:1030C00048BF81F0004100F1BE81421A3CBF801A26
:1030D00089184FEAD052A2EBD1534FF07F4C1CEA33
:1030E000410F18BF9CEA026F00F03B804FF0004C8C
:1030F0004CEA00204CEA012121FA03FC10EB0C0CF5
:103100001ED202F1FF325FEA1C2040EBC25038BFF2
:1031100070471CF07F0F4FEA400C18BFBCF17F4F87
:1031200038BF7047C3F12003994008BF20F0010069
:10313000BCF17F4F38BF7047A0F1C04000F076B9B6
:103140004FEA3C00000A40EBC25028BF1CF0FF0FC2
:103150004FEA400CE6D018BFBCF17F4F38BF704734
:10316000EAE79CEA026F05D010EA5C0F08BF00F0A6
:103170000040704710B500F013F900BF64FBBE3E7D
:1031800010B5FFF7A9FD0CBF0120002010BD10B540
:10319000FFF7A2FD14BF0120002010BD10B5FFF7FE
:1031A000EBFD8CBF0120002010BD10B5FFF7E4FD42
:1031B0002CBF0120002010BD10B5FFF719FE94BFF1
:1031C0000120002010BD10B5FFF712FE34BF012012
:1031D000002010BD10B500F033F80CBF0120002016
:1031E00010BD10B500F02CF814BF0120002010BD58
:1031F00010B500F06DF88CBF0120002010BD10B597
:1032000000F066F82CBF0120002010BD10B500F0C2
:1032100093F894BF0120002010BD10B500F08CF889
:1032200034BF0120002010BD401058BFC0F1404005
:10323000491058BFC1F140418142EFF3008070470F
:1032400050EA010C00F113801CF5000F58BFBCF5CB
:10325000000F01D48842704707D710F5000F58BF00
:1032600011F5000F15D488427047894270471CF54C
:10327000000F04D5BCF5000FF7D5814270474FF021
:10328000807C1CEB400F38BF1CEB410F01D2814208
:10329000704710B500F084F8922449004FF00050B8
:1032A0004FF08051FFF7C0BFB0FA80F310FA03F27D
:1032B000C3F19D030AD0D90501EB1220530638BF94
:1032C000704700F1010008BF20F0010070470000C6
:1032D00050EA010C00F113801CF5000F58BFBCF53B
:1032E000000F01D48842704707D710F5000F58BF70
:1032F00011F5000F15D488427047894270471CF5BC
:10330000000F04D5BCF5000FF7D5814270474FF090
:10331000807C1CEB400F38BF1CEB410F01D2814277
:10332000704710B500F03CF8922449004FF08050EF
:103330004FF00051FFF778BF50EA010C00F1138005
:103340001CF5000F58BFBCF5000F01D48842704730
:1033500007D710F5000F58BF11F5000F15D488429C
:103360007047894270471CF5000F04D5BCF5000F6B
:10337000F7D5814270474FF0807C1CEB400F38BF7F
:103380001CEB410F01D28142704710B500F008F8E4
:10339000922449004FF000504FF08051FFF744BF96
:1033A0000EF1020E2EF0030E5EF8044B244204D4FC
:1033B0004FEA4102B2F17F4F11D84FEA4003B3F117
:1033C0007F4F0CD80ED14FEAD07C0CEB4C0C0CF19B
:1033D000020CB2F17F4F08BF4CEBD17C04E04FF000
:1033E000080C01E04FEAD17C0CEB4C0324FA03F407
:1033F00004F00704B4F1040C06D20EEB840CBDE813
:1034000010404CF0010C6047DFE80CF007080202A6
:103410004FF00040A0F5800010BD0846420018BFE4
:10342000D2F1807288BF00F0004010BDFF2141EA58
:10343000D050C0057047000090EA010F48BF81F0EE
:1034400000413FF542AE421A04D882F00042A0EBA0
:10345000020011444FEAD052A2EBD1534FF07F4CFF
:103460001CEA410F18BF9CEA026F4AD04FF0004C93
:103470004CEA00204CEA012121FA03FCB0EB0C0CD1
:103480000FD412F0FE0F36D05FEA4C001DD50012AB
:1034900040EBC25038BF70471CF03F0F18BF704759
:1034A0000BE05FEA1C20A2F1010240EBC25038BFE2
:1034B00070471CF07F0F18BF7047C3F1200399407D
:1034C00014BF401E20F0010070474FEA122380080D
:1034D00008BF7047B0FA80FCA2EB0C02CCF1280CBC
:1034E00060FA0CF093EA122F04BF00EBC250704751
:1034F0004FEAC3707047130A5FEADC1008BF7047D9
:10350000F6E79CEA026F04D010EA5C0F08BF0020C7
:10351000704710B5FFF744FF40DFF63E81F00040F2
:1035200070470000000000000000010203040607CD
:10353000080902030405060708090A0B0C0D0E0F03
:1035400010100102030405060708090A0B0C0D0EF2
:103550000F10000078350008000000201000000067
:1035600084010008883500081000002008070000CA
:10357000A40100080000000000127A000100000011
:08358000100000000000000033
:0400000508000121CD
:00000001FF
